{
  "contracts/swapPermit2.sol": {
    "swapPermit": {
      "abi": [
        {
          "inputs": [],
          "name": "DeadlineExpired",
          "type": "error"
        },
        {
          "inputs": [],
          "name": "FailedSignature",
          "type": "error"
        },
        {
          "inputs": [],
          "name": "InsufficientFund",
          "type": "error"
        },
        {
          "inputs": [],
          "name": "SwapFailed",
          "type": "error"
        },
        {
          "anonymous": false,
          "inputs": [
            {
              "indexed": true,
              "internalType": "address",
              "name": "user",
              "type": "address"
            },
            {
              "indexed": false,
              "internalType": "address",
              "name": "tokenIn",
              "type": "address"
            },
            {
              "indexed": false,
              "internalType": "uint256",
              "name": "amountIn",
              "type": "uint256"
            },
            {
              "indexed": false,
              "internalType": "address",
              "name": "tokenOut",
              "type": "address"
            },
            {
              "indexed": false,
              "internalType": "uint256",
              "name": "amountOut",
              "type": "uint256"
            }
          ],
          "name": "SwapDone",
          "type": "event"
        },
        {
          "inputs": [],
          "name": "PERMIT2",
          "outputs": [
            {
              "internalType": "address",
              "name": "",
              "type": "address"
            }
          ],
          "stateMutability": "view",
          "type": "function"
        },
        {
          "inputs": [],
          "name": "POOL_FEE",
          "outputs": [
            {
              "internalType": "uint24",
              "name": "",
              "type": "uint24"
            }
          ],
          "stateMutability": "view",
          "type": "function"
        },
        {
          "inputs": [],
          "name": "SWAP_ROUTER",
          "outputs": [
            {
              "internalType": "address",
              "name": "",
              "type": "address"
            }
          ],
          "stateMutability": "view",
          "type": "function"
        },
        {
          "inputs": [],
          "name": "SWAP_WITNESS_TYPEHASH",
          "outputs": [
            {
              "internalType": "bytes32",
              "name": "",
              "type": "bytes32"
            }
          ],
          "stateMutability": "view",
          "type": "function"
        },
        {
          "inputs": [],
          "name": "WITNESS_TYPE_STRING",
          "outputs": [
            {
              "internalType": "string",
              "name": "",
              "type": "string"
            }
          ],
          "stateMutability": "view",
          "type": "function"
        },
        {
          "inputs": [
            {
              "internalType": "address",
              "name": "owner",
              "type": "address"
            },
            {
              "components": [
                {
                  "components": [
                    {
                      "internalType": "address",
                      "name": "token",
                      "type": "address"
                    },
                    {
                      "internalType": "uint256",
                      "name": "amount",
                      "type": "uint256"
                    }
                  ],
                  "internalType": "struct ISignatureTransfer.TokenPermissions",
                  "name": "permitted",
                  "type": "tuple"
                },
                {
                  "internalType": "uint256",
                  "name": "nonce",
                  "type": "uint256"
                },
                {
                  "internalType": "uint256",
                  "name": "deadline",
                  "type": "uint256"
                }
              ],
              "internalType": "struct ISignatureTransfer.PermitTransferFrom",
              "name": "permit",
              "type": "tuple"
            },
            {
              "internalType": "address",
              "name": "recipient",
              "type": "address"
            },
            {
              "internalType": "uint256",
              "name": "amountOutMinimum",
              "type": "uint256"
            },
            {
              "internalType": "uint256",
              "name": "deadline",
              "type": "uint256"
            },
            {
              "internalType": "uint8",
              "name": "v",
              "type": "uint8"
            },
            {
              "internalType": "bytes32",
              "name": "r",
              "type": "bytes32"
            },
            {
              "internalType": "bytes32",
              "name": "s",
              "type": "bytes32"
            }
          ],
          "name": "swapWithPermit",
          "outputs": [
            {
              "internalType": "uint256",
              "name": "amountOut",
              "type": "uint256"
            }
          ],
          "stateMutability": "nonpayable",
          "type": "function"
        }
      ],
      "evm": {
        "bytecode": {
          "linkReferences": {},
          "object": "60808060405234601557610891908161001b8239f35b600080fdfe608080604052600436101561001357600080fd5b600090813560e01c90816307a45b06146106b257508063156e21521461067e57806331a6fed5146100db5780636afdd850146100b1578063c6005893146100825763dd1b9c4a1461006357600080fd5b3461007f578060031936011261007f576020604051610bb88152f35b80fd5b503461007f578060031936011261007f57602060405173e592427a0aece92de3edee1f18e0157c058615648152f35b503461007f578060031936011261007f5760206040516e22d473030f116ddee9f6b43ac78ba38152f35b503461007f5761016036600319011261007f576004356001600160a01b0381169081900361067a573660231901906080821261066257604051916060830183811067ffffffffffffffff821117610666579060409182521261066257604051610143816106ec565b6024356001600160a01b038116810361065e578152604435602082015282526020820160643581526040830190608435825260a4359060018060a01b0382169081830361065a5760c4359060e43593610104359060ff821682036106565785421161064757602089510151156106385730850361063257508751516001600160a01b0316955b604051966080880188811067ffffffffffffffff8211176105b157908b93929160405260018060a01b0316885260208801610bb881526040890187815260608a018781526040519162ffffff60208401947f336f2af0a798b15b2079358586beb4bba15d1d2cde480c696dafc27f30e1b57786528d60018060a01b0390511660408601525116606084015260018060a01b0390511660808301525160a082015260a0815261027860c08261071e565b5190209060208b5101519260405193610290856106ec565b30855260208501526102a0610740565b936040519161012435602084015261014435604084015260ff60f81b9060f81b166060830152604182526102d560618361071e565b6e22d473030f116ddee9f6b43ac78ba33b156105a5576040516309be14ff60e11b81528d5180516001600160a01b031660048301526020015160248201529687958695610384956103719492939192610352929091905160448a015251606489015280516001600160a01b031660848901526020015160a4880152565b8d60c487015260e486015261014061010486015261014485019061081a565b838103600319016101248501529061081a565b0381836e22d473030f116ddee9f6b43ac78ba35af1908161061e575b506103b457631639d65d60e31b8752600487fd5b866020875160448260018060a01b03835116920151604051948593849263095ea7b360e01b845273e592427a0aece92de3edee1f18e0157c05861564600485015260248401525af19081156106135788916105d4575b50156105c557855180518551602090920151604051956001600160a01b03938416959193909216610100870167ffffffffffffffff8111888210176105b15760409081529087526020808801968752610bb8888301908152606089019384526080890194855260a0890195865260c0890196875260e089018d8152925163414bf38960e01b815298516001600160a01b0390811660048b01529751881660248a01525162ffffff16604489015291518616606488015291516084870152915160a4860152915160c4850152905190911660e483015281610104818873e592427a0aece92de3edee1f18e0157c058615645af1859181610579575b506105185763081ceff360e41b8552600485fd5b925180516020918201519251604080516001600160a01b039384168152808501959095529116908301526060820184905293507f83246e14d7c48054cd6e296526137915acc65174820cf05490d19f8090c0089a90608090a2604051908152f35b9091506020813d6020116105a9575b816105956020938361071e565b810103126105a557519038610504565b8580fd5b3d9150610588565b634e487b7160e01b8c52604160045260248cfd5b63081ceff360e41b8752600487fd5b90506020813d60201161060b575b816105ef6020938361071e565b8101031261060757518015158103610607573861040a565b8780fd5b3d91506105e2565b6040513d8a823e3d90fd5b8861062b9199929961071e565b96386103a0565b956101c9565b636a259e3160e11b8a5260048afd5b631ab7da6b60e01b8a5260048afd5b8980fd5b8680fd5b8480fd5b8280fd5b634e487b7160e01b85526041600452602485fd5b5080fd5b503461007f578060031936011261007f576106ae61069a610740565b60405191829160208352602083019061081a565b0390f35b90503461067a578160031936011261067a57807f336f2af0a798b15b2079358586beb4bba15d1d2cde480c696dafc27f30e1b57760209252f35b6040810190811067ffffffffffffffff82111761070857604052565b634e487b7160e01b600052604160045260246000fd5b90601f8019910116810190811067ffffffffffffffff82111761070857604052565b6040519060c0820182811067ffffffffffffffff821117610708576040526095825274746f6b656e2c75696e7432353620616d6f756e742960581b60a0837f537761705769746e657373207769746e65737329537761705769746e6573732860208201527f6164647265737320746f6b656e4f75742c75696e743234206665652c6164647260408201527f65737320726563697069656e742c75696e7432353620616d6f756e744f75744d60608201527f696e696d756d29546f6b656e5065726d697373696f6e7328616464726573732060808201520152565b919082519283825260005b848110610846575050826000602080949584010152601f8019910116010190565b8060208092840101518282860101520161082556fea264697066735822122048536e03d58fb0a0ceec4f85577f0109160881c212bdffab67e52d156d8cecd564736f6c634300081c0033",
          "opcodes": "PUSH1 0x80 DUP1 PUSH1 0x40 MSTORE CALLVALUE PUSH1 0x15 JUMPI PUSH2 0x891 SWAP1 DUP2 PUSH2 0x1B DUP3 CODECOPY RETURN JUMPDEST PUSH1 0x0 DUP1 REVERT INVALID PUSH1 0x80 DUP1 PUSH1 0x40 MSTORE PUSH1 0x4 CALLDATASIZE LT ISZERO PUSH2 0x13 JUMPI PUSH1 0x0 DUP1 REVERT JUMPDEST PUSH1 0x0 SWAP1 DUP2 CALLDATALOAD PUSH1 0xE0 SHR SWAP1 DUP2 PUSH4 0x7A45B06 EQ PUSH2 0x6B2 JUMPI POP DUP1 PUSH4 0x156E2152 EQ PUSH2 0x67E JUMPI DUP1 PUSH4 0x31A6FED5 EQ PUSH2 0xDB JUMPI DUP1 PUSH4 0x6AFDD850 EQ PUSH2 0xB1 JUMPI DUP1 PUSH4 0xC6005893 EQ PUSH2 0x82 JUMPI PUSH4 0xDD1B9C4A EQ PUSH2 0x63 JUMPI PUSH1 0x0 DUP1 REVERT JUMPDEST CALLVALUE PUSH2 0x7F JUMPI DUP1 PUSH1 0x3 NOT CALLDATASIZE ADD SLT PUSH2 0x7F JUMPI PUSH1 0x20 PUSH1 0x40 MLOAD PUSH2 0xBB8 DUP2 MSTORE RETURN JUMPDEST DUP1 REVERT JUMPDEST POP CALLVALUE PUSH2 0x7F JUMPI DUP1 PUSH1 0x3 NOT CALLDATASIZE ADD SLT PUSH2 0x7F JUMPI PUSH1 0x20 PUSH1 0x40 MLOAD PUSH20 0xE592427A0AECE92DE3EDEE1F18E0157C05861564 DUP2 MSTORE RETURN JUMPDEST POP CALLVALUE PUSH2 0x7F JUMPI DUP1 PUSH1 0x3 NOT CALLDATASIZE ADD SLT PUSH2 0x7F JUMPI PUSH1 0x20 PUSH1 0x40 MLOAD PUSH15 0x22D473030F116DDEE9F6B43AC78BA3 DUP2 MSTORE RETURN JUMPDEST POP CALLVALUE PUSH2 0x7F JUMPI PUSH2 0x160 CALLDATASIZE PUSH1 0x3 NOT ADD SLT PUSH2 0x7F JUMPI PUSH1 0x4 CALLDATALOAD PUSH1 0x1 PUSH1 0x1 PUSH1 0xA0 SHL SUB DUP2 AND SWAP1 DUP2 SWAP1 SUB PUSH2 0x67A JUMPI CALLDATASIZE PUSH1 0x23 NOT ADD SWAP1 PUSH1 0x80 DUP3 SLT PUSH2 0x662 JUMPI PUSH1 0x40 MLOAD SWAP2 PUSH1 0x60 DUP4 ADD DUP4 DUP2 LT PUSH8 0xFFFFFFFFFFFFFFFF DUP3 GT OR PUSH2 0x666 JUMPI SWAP1 PUSH1 0x40 SWAP2 DUP3 MSTORE SLT PUSH2 0x662 JUMPI PUSH1 0x40 MLOAD PUSH2 0x143 DUP2 PUSH2 0x6EC JUMP JUMPDEST PUSH1 0x24 CALLDATALOAD PUSH1 0x1 PUSH1 0x1 PUSH1 0xA0 SHL SUB DUP2 AND DUP2 SUB PUSH2 0x65E JUMPI DUP2 MSTORE PUSH1 0x44 CALLDATALOAD PUSH1 0x20 DUP3 ADD MSTORE DUP3 MSTORE PUSH1 0x20 DUP3 ADD PUSH1 0x64 CALLDATALOAD DUP2 MSTORE PUSH1 0x40 DUP4 ADD SWAP1 PUSH1 0x84 CALLDATALOAD DUP3 MSTORE PUSH1 0xA4 CALLDATALOAD SWAP1 PUSH1 0x1 DUP1 PUSH1 0xA0 SHL SUB DUP3 AND SWAP1 DUP2 DUP4 SUB PUSH2 0x65A JUMPI PUSH1 0xC4 CALLDATALOAD SWAP1 PUSH1 0xE4 CALLDATALOAD SWAP4 PUSH2 0x104 CALLDATALOAD SWAP1 PUSH1 0xFF DUP3 AND DUP3 SUB PUSH2 0x656 JUMPI DUP6 TIMESTAMP GT PUSH2 0x647 JUMPI PUSH1 0x20 DUP10 MLOAD ADD MLOAD ISZERO PUSH2 0x638 JUMPI ADDRESS DUP6 SUB PUSH2 0x632 JUMPI POP DUP8 MLOAD MLOAD PUSH1 0x1 PUSH1 0x1 PUSH1 0xA0 SHL SUB AND SWAP6 JUMPDEST PUSH1 0x40 MLOAD SWAP7 PUSH1 0x80 DUP9 ADD DUP9 DUP2 LT PUSH8 0xFFFFFFFFFFFFFFFF DUP3 GT OR PUSH2 0x5B1 JUMPI SWAP1 DUP12 SWAP4 SWAP3 SWAP2 PUSH1 0x40 MSTORE PUSH1 0x1 DUP1 PUSH1 0xA0 SHL SUB AND DUP9 MSTORE PUSH1 0x20 DUP9 ADD PUSH2 0xBB8 DUP2 MSTORE PUSH1 0x40 DUP10 ADD DUP8 DUP2 MSTORE PUSH1 0x60 DUP11 ADD DUP8 DUP2 MSTORE PUSH1 0x40 MLOAD SWAP2 PUSH3 0xFFFFFF PUSH1 0x20 DUP5 ADD SWAP5 PUSH32 0x336F2AF0A798B15B2079358586BEB4BBA15D1D2CDE480C696DAFC27F30E1B577 DUP7 MSTORE DUP14 PUSH1 0x1 DUP1 PUSH1 0xA0 SHL SUB SWAP1 MLOAD AND PUSH1 0x40 DUP7 ADD MSTORE MLOAD AND PUSH1 0x60 DUP5 ADD MSTORE PUSH1 0x1 DUP1 PUSH1 0xA0 SHL SUB SWAP1 MLOAD AND PUSH1 0x80 DUP4 ADD MSTORE MLOAD PUSH1 0xA0 DUP3 ADD MSTORE PUSH1 0xA0 DUP2 MSTORE PUSH2 0x278 PUSH1 0xC0 DUP3 PUSH2 0x71E JUMP JUMPDEST MLOAD SWAP1 KECCAK256 SWAP1 PUSH1 0x20 DUP12 MLOAD ADD MLOAD SWAP3 PUSH1 0x40 MLOAD SWAP4 PUSH2 0x290 DUP6 PUSH2 0x6EC JUMP JUMPDEST ADDRESS DUP6 MSTORE PUSH1 0x20 DUP6 ADD MSTORE PUSH2 0x2A0 PUSH2 0x740 JUMP JUMPDEST SWAP4 PUSH1 0x40 MLOAD SWAP2 PUSH2 0x124 CALLDATALOAD PUSH1 0x20 DUP5 ADD MSTORE PUSH2 0x144 CALLDATALOAD PUSH1 0x40 DUP5 ADD MSTORE PUSH1 0xFF PUSH1 0xF8 SHL SWAP1 PUSH1 0xF8 SHL AND PUSH1 0x60 DUP4 ADD MSTORE PUSH1 0x41 DUP3 MSTORE PUSH2 0x2D5 PUSH1 0x61 DUP4 PUSH2 0x71E JUMP JUMPDEST PUSH15 0x22D473030F116DDEE9F6B43AC78BA3 EXTCODESIZE ISZERO PUSH2 0x5A5 JUMPI PUSH1 0x40 MLOAD PUSH4 0x9BE14FF PUSH1 0xE1 SHL DUP2 MSTORE DUP14 MLOAD DUP1 MLOAD PUSH1 0x1 PUSH1 0x1 PUSH1 0xA0 SHL SUB AND PUSH1 0x4 DUP4 ADD MSTORE PUSH1 0x20 ADD MLOAD PUSH1 0x24 DUP3 ADD MSTORE SWAP7 DUP8 SWAP6 DUP7 SWAP6 PUSH2 0x384 SWAP6 PUSH2 0x371 SWAP5 SWAP3 SWAP4 SWAP2 SWAP3 PUSH2 0x352 SWAP3 SWAP1 SWAP2 SWAP1 MLOAD PUSH1 0x44 DUP11 ADD MSTORE MLOAD PUSH1 0x64 DUP10 ADD MSTORE DUP1 MLOAD PUSH1 0x1 PUSH1 0x1 PUSH1 0xA0 SHL SUB AND PUSH1 0x84 DUP10 ADD MSTORE PUSH1 0x20 ADD MLOAD PUSH1 0xA4 DUP9 ADD MSTORE JUMP JUMPDEST DUP14 PUSH1 0xC4 DUP8 ADD MSTORE PUSH1 0xE4 DUP7 ADD MSTORE PUSH2 0x140 PUSH2 0x104 DUP7 ADD MSTORE PUSH2 0x144 DUP6 ADD SWAP1 PUSH2 0x81A JUMP JUMPDEST DUP4 DUP2 SUB PUSH1 0x3 NOT ADD PUSH2 0x124 DUP6 ADD MSTORE SWAP1 PUSH2 0x81A JUMP JUMPDEST SUB DUP2 DUP4 PUSH15 0x22D473030F116DDEE9F6B43AC78BA3 GAS CALL SWAP1 DUP2 PUSH2 0x61E JUMPI JUMPDEST POP PUSH2 0x3B4 JUMPI PUSH4 0x1639D65D PUSH1 0xE3 SHL DUP8 MSTORE PUSH1 0x4 DUP8 REVERT JUMPDEST DUP7 PUSH1 0x20 DUP8 MLOAD PUSH1 0x44 DUP3 PUSH1 0x1 DUP1 PUSH1 0xA0 SHL SUB DUP4 MLOAD AND SWAP3 ADD MLOAD PUSH1 0x40 MLOAD SWAP5 DUP6 SWAP4 DUP5 SWAP3 PUSH4 0x95EA7B3 PUSH1 0xE0 SHL DUP5 MSTORE PUSH20 0xE592427A0AECE92DE3EDEE1F18E0157C05861564 PUSH1 0x4 DUP6 ADD MSTORE PUSH1 0x24 DUP5 ADD MSTORE GAS CALL SWAP1 DUP2 ISZERO PUSH2 0x613 JUMPI DUP9 SWAP2 PUSH2 0x5D4 JUMPI JUMPDEST POP ISZERO PUSH2 0x5C5 JUMPI DUP6 MLOAD DUP1 MLOAD DUP6 MLOAD PUSH1 0x20 SWAP1 SWAP3 ADD MLOAD PUSH1 0x40 MLOAD SWAP6 PUSH1 0x1 PUSH1 0x1 PUSH1 0xA0 SHL SUB SWAP4 DUP5 AND SWAP6 SWAP2 SWAP4 SWAP1 SWAP3 AND PUSH2 0x100 DUP8 ADD PUSH8 0xFFFFFFFFFFFFFFFF DUP2 GT DUP9 DUP3 LT OR PUSH2 0x5B1 JUMPI PUSH1 0x40 SWAP1 DUP2 MSTORE SWAP1 DUP8 MSTORE PUSH1 0x20 DUP1 DUP9 ADD SWAP7 DUP8 MSTORE PUSH2 0xBB8 DUP9 DUP4 ADD SWAP1 DUP2 MSTORE PUSH1 0x60 DUP10 ADD SWAP4 DUP5 MSTORE PUSH1 0x80 DUP10 ADD SWAP5 DUP6 MSTORE PUSH1 0xA0 DUP10 ADD SWAP6 DUP7 MSTORE PUSH1 0xC0 DUP10 ADD SWAP7 DUP8 MSTORE PUSH1 0xE0 DUP10 ADD DUP14 DUP2 MSTORE SWAP3 MLOAD PUSH4 0x414BF389 PUSH1 0xE0 SHL DUP2 MSTORE SWAP9 MLOAD PUSH1 0x1 PUSH1 0x1 PUSH1 0xA0 SHL SUB SWAP1 DUP2 AND PUSH1 0x4 DUP12 ADD MSTORE SWAP8 MLOAD DUP9 AND PUSH1 0x24 DUP11 ADD MSTORE MLOAD PUSH3 0xFFFFFF AND PUSH1 0x44 DUP10 ADD MSTORE SWAP2 MLOAD DUP7 AND PUSH1 0x64 DUP9 ADD MSTORE SWAP2 MLOAD PUSH1 0x84 DUP8 ADD MSTORE SWAP2 MLOAD PUSH1 0xA4 DUP7 ADD MSTORE SWAP2 MLOAD PUSH1 0xC4 DUP6 ADD MSTORE SWAP1 MLOAD SWAP1 SWAP2 AND PUSH1 0xE4 DUP4 ADD MSTORE DUP2 PUSH2 0x104 DUP2 DUP9 PUSH20 0xE592427A0AECE92DE3EDEE1F18E0157C05861564 GAS CALL DUP6 SWAP2 DUP2 PUSH2 0x579 JUMPI JUMPDEST POP PUSH2 0x518 JUMPI PUSH4 0x81CEFF3 PUSH1 0xE4 SHL DUP6 MSTORE PUSH1 0x4 DUP6 REVERT JUMPDEST SWAP3 MLOAD DUP1 MLOAD PUSH1 0x20 SWAP2 DUP3 ADD MLOAD SWAP3 MLOAD PUSH1 0x40 DUP1 MLOAD PUSH1 0x1 PUSH1 0x1 PUSH1 0xA0 SHL SUB SWAP4 DUP5 AND DUP2 MSTORE DUP1 DUP6 ADD SWAP6 SWAP1 SWAP6 MSTORE SWAP2 AND SWAP1 DUP4 ADD MSTORE PUSH1 0x60 DUP3 ADD DUP5 SWAP1 MSTORE SWAP4 POP PUSH32 0x83246E14D7C48054CD6E296526137915ACC65174820CF05490D19F8090C0089A SWAP1 PUSH1 0x80 SWAP1 LOG2 PUSH1 0x40 MLOAD SWAP1 DUP2 MSTORE RETURN JUMPDEST SWAP1 SWAP2 POP PUSH1 0x20 DUP2 RETURNDATASIZE PUSH1 0x20 GT PUSH2 0x5A9 JUMPI JUMPDEST DUP2 PUSH2 0x595 PUSH1 0x20 SWAP4 DUP4 PUSH2 0x71E JUMP JUMPDEST DUP2 ADD SUB SLT PUSH2 0x5A5 JUMPI MLOAD SWAP1 CODESIZE PUSH2 0x504 JUMP JUMPDEST DUP6 DUP1 REVERT JUMPDEST RETURNDATASIZE SWAP2 POP PUSH2 0x588 JUMP JUMPDEST PUSH4 0x4E487B71 PUSH1 0xE0 SHL DUP13 MSTORE PUSH1 0x41 PUSH1 0x4 MSTORE PUSH1 0x24 DUP13 REVERT JUMPDEST PUSH4 0x81CEFF3 PUSH1 0xE4 SHL DUP8 MSTORE PUSH1 0x4 DUP8 REVERT JUMPDEST SWAP1 POP PUSH1 0x20 DUP2 RETURNDATASIZE PUSH1 0x20 GT PUSH2 0x60B JUMPI JUMPDEST DUP2 PUSH2 0x5EF PUSH1 0x20 SWAP4 DUP4 PUSH2 0x71E JUMP JUMPDEST DUP2 ADD SUB SLT PUSH2 0x607 JUMPI MLOAD DUP1 ISZERO ISZERO DUP2 SUB PUSH2 0x607 JUMPI CODESIZE PUSH2 0x40A JUMP JUMPDEST DUP8 DUP1 REVERT JUMPDEST RETURNDATASIZE SWAP2 POP PUSH2 0x5E2 JUMP JUMPDEST PUSH1 0x40 MLOAD RETURNDATASIZE DUP11 DUP3 RETURNDATACOPY RETURNDATASIZE SWAP1 REVERT JUMPDEST DUP9 PUSH2 0x62B SWAP2 SWAP10 SWAP3 SWAP10 PUSH2 0x71E JUMP JUMPDEST SWAP7 CODESIZE PUSH2 0x3A0 JUMP JUMPDEST SWAP6 PUSH2 0x1C9 JUMP JUMPDEST PUSH4 0x6A259E31 PUSH1 0xE1 SHL DUP11 MSTORE PUSH1 0x4 DUP11 REVERT JUMPDEST PUSH4 0x1AB7DA6B PUSH1 0xE0 SHL DUP11 MSTORE PUSH1 0x4 DUP11 REVERT JUMPDEST DUP10 DUP1 REVERT JUMPDEST DUP7 DUP1 REVERT JUMPDEST DUP5 DUP1 REVERT JUMPDEST DUP3 DUP1 REVERT JUMPDEST PUSH4 0x4E487B71 PUSH1 0xE0 SHL DUP6 MSTORE PUSH1 0x41 PUSH1 0x4 MSTORE PUSH1 0x24 DUP6 REVERT JUMPDEST POP DUP1 REVERT JUMPDEST POP CALLVALUE PUSH2 0x7F JUMPI DUP1 PUSH1 0x3 NOT CALLDATASIZE ADD SLT PUSH2 0x7F JUMPI PUSH2 0x6AE PUSH2 0x69A PUSH2 0x740 JUMP JUMPDEST PUSH1 0x40 MLOAD SWAP2 DUP3 SWAP2 PUSH1 0x20 DUP4 MSTORE PUSH1 0x20 DUP4 ADD SWAP1 PUSH2 0x81A JUMP JUMPDEST SUB SWAP1 RETURN JUMPDEST SWAP1 POP CALLVALUE PUSH2 0x67A JUMPI DUP2 PUSH1 0x3 NOT CALLDATASIZE ADD SLT PUSH2 0x67A JUMPI DUP1 PUSH32 0x336F2AF0A798B15B2079358586BEB4BBA15D1D2CDE480C696DAFC27F30E1B577 PUSH1 0x20 SWAP3 MSTORE RETURN JUMPDEST PUSH1 0x40 DUP2 ADD SWAP1 DUP2 LT PUSH8 0xFFFFFFFFFFFFFFFF DUP3 GT OR PUSH2 0x708 JUMPI PUSH1 0x40 MSTORE JUMP JUMPDEST PUSH4 0x4E487B71 PUSH1 0xE0 SHL PUSH1 0x0 MSTORE PUSH1 0x41 PUSH1 0x4 MSTORE PUSH1 0x24 PUSH1 0x0 REVERT JUMPDEST SWAP1 PUSH1 0x1F DUP1 NOT SWAP2 ADD AND DUP2 ADD SWAP1 DUP2 LT PUSH8 0xFFFFFFFFFFFFFFFF DUP3 GT OR PUSH2 0x708 JUMPI PUSH1 0x40 MSTORE JUMP JUMPDEST PUSH1 0x40 MLOAD SWAP1 PUSH1 0xC0 DUP3 ADD DUP3 DUP2 LT PUSH8 0xFFFFFFFFFFFFFFFF DUP3 GT OR PUSH2 0x708 JUMPI PUSH1 0x40 MSTORE PUSH1 0x95 DUP3 MSTORE PUSH21 0x746F6B656E2C75696E7432353620616D6F756E7429 PUSH1 0x58 SHL PUSH1 0xA0 DUP4 PUSH32 0x537761705769746E657373207769746E65737329537761705769746E65737328 PUSH1 0x20 DUP3 ADD MSTORE PUSH32 0x6164647265737320746F6B656E4F75742C75696E743234206665652C61646472 PUSH1 0x40 DUP3 ADD MSTORE PUSH32 0x65737320726563697069656E742C75696E7432353620616D6F756E744F75744D PUSH1 0x60 DUP3 ADD MSTORE PUSH32 0x696E696D756D29546F6B656E5065726D697373696F6E73286164647265737320 PUSH1 0x80 DUP3 ADD MSTORE ADD MSTORE JUMP JUMPDEST SWAP2 SWAP1 DUP3 MLOAD SWAP3 DUP4 DUP3 MSTORE PUSH1 0x0 JUMPDEST DUP5 DUP2 LT PUSH2 0x846 JUMPI POP POP DUP3 PUSH1 0x0 PUSH1 0x20 DUP1 SWAP5 SWAP6 DUP5 ADD ADD MSTORE PUSH1 0x1F DUP1 NOT SWAP2 ADD AND ADD ADD SWAP1 JUMP JUMPDEST DUP1 PUSH1 0x20 DUP1 SWAP3 DUP5 ADD ADD MLOAD DUP3 DUP3 DUP7 ADD ADD MSTORE ADD PUSH2 0x825 JUMP INVALID LOG2 PUSH5 0x6970667358 0x22 SLT KECCAK256 BASEFEE MSTORE8 PUSH15 0x3D58FB0A0CEEC4F85577F01091608 DUP2 0xC2 SLT 0xBD SELFDESTRUCT 0xAB PUSH8 0xE52D156D8CECD564 PUSH20 0x6F6C634300081C00330000000000000000000000 "
        },
        "methodIdentifiers": {
          "PERMIT2()": "6afdd850",
          "POOL_FEE()": "dd1b9c4a",
          "SWAP_ROUTER()": "c6005893",
          "SWAP_WITNESS_TYPEHASH()": "07a45b06",
          "WITNESS_TYPE_STRING()": "156e2152",
          "swapWithPermit(address,((address,uint256),uint256,uint256),address,uint256,uint256,uint8,bytes32,bytes32)": "31a6fed5"
        }
      }
    }
  }
}