{
  "contracts/EIP712Helper.sol": {
    "EIP712Helper": {
      "abi": [
        {
          "inputs": [],
          "name": "DOMAIN_TYPEHASH",
          "outputs": [
            {
              "internalType": "bytes32",
              "name": "",
              "type": "bytes32"
            }
          ],
          "stateMutability": "view",
          "type": "function"
        },
        {
          "inputs": [],
          "name": "EIP712_DOMAIN_NAME",
          "outputs": [
            {
              "internalType": "string",
              "name": "",
              "type": "string"
            }
          ],
          "stateMutability": "view",
          "type": "function"
        },
        {
          "inputs": [],
          "name": "EIP712_DOMAIN_VERSION",
          "outputs": [
            {
              "internalType": "string",
              "name": "",
              "type": "string"
            }
          ],
          "stateMutability": "view",
          "type": "function"
        },
        {
          "inputs": [],
          "name": "PERMIT_TYPEHASH",
          "outputs": [
            {
              "internalType": "bytes32",
              "name": "",
              "type": "bytes32"
            }
          ],
          "stateMutability": "view",
          "type": "function"
        },
        {
          "inputs": [
            {
              "internalType": "address",
              "name": "tokenAddress",
              "type": "address"
            },
            {
              "internalType": "uint256",
              "name": "chainId",
              "type": "uint256"
            }
          ],
          "name": "buildDomainSeparator",
          "outputs": [
            {
              "internalType": "bytes32",
              "name": "",
              "type": "bytes32"
            }
          ],
          "stateMutability": "pure",
          "type": "function"
        },
        {
          "inputs": [
            {
              "internalType": "bytes32",
              "name": "domainSeparator",
              "type": "bytes32"
            },
            {
              "internalType": "bytes32",
              "name": "permitHash",
              "type": "bytes32"
            }
          ],
          "name": "buildEIP712Hash",
          "outputs": [
            {
              "internalType": "bytes32",
              "name": "",
              "type": "bytes32"
            }
          ],
          "stateMutability": "pure",
          "type": "function"
        },
        {
          "inputs": [
            {
              "internalType": "address",
              "name": "owner",
              "type": "address"
            },
            {
              "internalType": "address",
              "name": "spender",
              "type": "address"
            },
            {
              "internalType": "uint256",
              "name": "value",
              "type": "uint256"
            },
            {
              "internalType": "uint256",
              "name": "nonce",
              "type": "uint256"
            },
            {
              "internalType": "uint256",
              "name": "deadline",
              "type": "uint256"
            }
          ],
          "name": "buildPermitHash",
          "outputs": [
            {
              "internalType": "bytes32",
              "name": "",
              "type": "bytes32"
            }
          ],
          "stateMutability": "pure",
          "type": "function"
        }
      ],
      "evm": {
        "bytecode": {
          "linkReferences": {},
          "object": "608080604052346015576103de908161001b8239f35b600080fdfe608080604052600436101561001357600080fd5b60003560e01c90816310cde3631461027f5750806320606b701461024457806330adf81f146102095780633b98dff9146101c85780635cc333211461018c578063a3a406d2146100be5763fd0702961461006c57600080fd5b346100b95760003660031901126100b9576100b560405161008e604082610327565b600e81526d2230b49029ba30b13632b1b7b4b760911b60208201526040519182918261035f565b0390f35b600080fd5b346100b95760403660031901126100b95760206100d9610311565b6040516100e7604082610327565b600e8152828101906d2230b49029ba30b13632b1b7b4b760911b825251902090604051610115604082610327565b6001815283810190603160f81b82525190209060405191848301937f8b73c3c69bb8fe3d512ecc4cf759cc79239f7b179b0ffacaa9a75d522b39400f855260408401526060830152602435608083015260018060a01b031660a082015260a0815261018160c082610327565b519020604051908152f35b346100b95760003660031901126100b9576100b56040516101ae604082610327565b60018152603160f81b60208201526040519182918261035f565b346100b95760403660031901126100b95760206040518181019061190160f01b82526004356022820152602435604282015260428152610181606282610327565b346100b95760003660031901126100b95760206040517f6e71edae12b1b97f4d1f60370fef10105fa2faae0126114a169c64845d6126c98152f35b346100b95760003660031901126100b95760206040517f8b73c3c69bb8fe3d512ecc4cf759cc79239f7b179b0ffacaa9a75d522b39400f8152f35b346100b95760a03660031901126100b957610298610311565b6024356001600160a01b03811692908390036100b957602092838201927f6e71edae12b1b97f4d1f60370fef10105fa2faae0126114a169c64845d6126c9845260018060a01b031660408301526060820152604435608082015260643560a082015260843560c082015260c0815261018160e082610327565b600435906001600160a01b03821682036100b957565b90601f8019910116810190811067ffffffffffffffff82111761034957604052565b634e487b7160e01b600052604160045260246000fd5b91909160208152825180602083015260005b818110610392575060409293506000838284010152601f8019910116010190565b806020809287010151604082860101520161037156fea26469706673582212201cfbc24727a0f60c1b74cf9b2096b6ae240e546abb836de16ed7fdc6f6ba3d1d64736f6c634300081c0033",
          "opcodes": "PUSH1 0x80 DUP1 PUSH1 0x40 MSTORE CALLVALUE PUSH1 0x15 JUMPI PUSH2 0x3DE SWAP1 DUP2 PUSH2 0x1B DUP3 CODECOPY RETURN JUMPDEST PUSH1 0x0 DUP1 REVERT INVALID PUSH1 0x80 DUP1 PUSH1 0x40 MSTORE PUSH1 0x4 CALLDATASIZE LT ISZERO PUSH2 0x13 JUMPI PUSH1 0x0 DUP1 REVERT JUMPDEST PUSH1 0x0 CALLDATALOAD PUSH1 0xE0 SHR SWAP1 DUP2 PUSH4 0x10CDE363 EQ PUSH2 0x27F JUMPI POP DUP1 PUSH4 0x20606B70 EQ PUSH2 0x244 JUMPI DUP1 PUSH4 0x30ADF81F EQ PUSH2 0x209 JUMPI DUP1 PUSH4 0x3B98DFF9 EQ PUSH2 0x1C8 JUMPI DUP1 PUSH4 0x5CC33321 EQ PUSH2 0x18C JUMPI DUP1 PUSH4 0xA3A406D2 EQ PUSH2 0xBE JUMPI PUSH4 0xFD070296 EQ PUSH2 0x6C JUMPI PUSH1 0x0 DUP1 REVERT JUMPDEST CALLVALUE PUSH2 0xB9 JUMPI PUSH1 0x0 CALLDATASIZE PUSH1 0x3 NOT ADD SLT PUSH2 0xB9 JUMPI PUSH2 0xB5 PUSH1 0x40 MLOAD PUSH2 0x8E PUSH1 0x40 DUP3 PUSH2 0x327 JUMP JUMPDEST PUSH1 0xE DUP2 MSTORE PUSH14 0x2230B49029BA30B13632B1B7B4B7 PUSH1 0x91 SHL PUSH1 0x20 DUP3 ADD MSTORE PUSH1 0x40 MLOAD SWAP2 DUP3 SWAP2 DUP3 PUSH2 0x35F JUMP JUMPDEST SUB SWAP1 RETURN JUMPDEST PUSH1 0x0 DUP1 REVERT JUMPDEST CALLVALUE PUSH2 0xB9 JUMPI PUSH1 0x40 CALLDATASIZE PUSH1 0x3 NOT ADD SLT PUSH2 0xB9 JUMPI PUSH1 0x20 PUSH2 0xD9 PUSH2 0x311 JUMP JUMPDEST PUSH1 0x40 MLOAD PUSH2 0xE7 PUSH1 0x40 DUP3 PUSH2 0x327 JUMP JUMPDEST PUSH1 0xE DUP2 MSTORE DUP3 DUP2 ADD SWAP1 PUSH14 0x2230B49029BA30B13632B1B7B4B7 PUSH1 0x91 SHL DUP3 MSTORE MLOAD SWAP1 KECCAK256 SWAP1 PUSH1 0x40 MLOAD PUSH2 0x115 PUSH1 0x40 DUP3 PUSH2 0x327 JUMP JUMPDEST PUSH1 0x1 DUP2 MSTORE DUP4 DUP2 ADD SWAP1 PUSH1 0x31 PUSH1 0xF8 SHL DUP3 MSTORE MLOAD SWAP1 KECCAK256 SWAP1 PUSH1 0x40 MLOAD SWAP2 DUP5 DUP4 ADD SWAP4 PUSH32 0x8B73C3C69BB8FE3D512ECC4CF759CC79239F7B179B0FFACAA9A75D522B39400F DUP6 MSTORE PUSH1 0x40 DUP5 ADD MSTORE PUSH1 0x60 DUP4 ADD MSTORE PUSH1 0x24 CALLDATALOAD PUSH1 0x80 DUP4 ADD MSTORE PUSH1 0x1 DUP1 PUSH1 0xA0 SHL SUB AND PUSH1 0xA0 DUP3 ADD MSTORE PUSH1 0xA0 DUP2 MSTORE PUSH2 0x181 PUSH1 0xC0 DUP3 PUSH2 0x327 JUMP JUMPDEST MLOAD SWAP1 KECCAK256 PUSH1 0x40 MLOAD SWAP1 DUP2 MSTORE RETURN JUMPDEST CALLVALUE PUSH2 0xB9 JUMPI PUSH1 0x0 CALLDATASIZE PUSH1 0x3 NOT ADD SLT PUSH2 0xB9 JUMPI PUSH2 0xB5 PUSH1 0x40 MLOAD PUSH2 0x1AE PUSH1 0x40 DUP3 PUSH2 0x327 JUMP JUMPDEST PUSH1 0x1 DUP2 MSTORE PUSH1 0x31 PUSH1 0xF8 SHL PUSH1 0x20 DUP3 ADD MSTORE PUSH1 0x40 MLOAD SWAP2 DUP3 SWAP2 DUP3 PUSH2 0x35F JUMP JUMPDEST CALLVALUE PUSH2 0xB9 JUMPI PUSH1 0x40 CALLDATASIZE PUSH1 0x3 NOT ADD SLT PUSH2 0xB9 JUMPI PUSH1 0x20 PUSH1 0x40 MLOAD DUP2 DUP2 ADD SWAP1 PUSH2 0x1901 PUSH1 0xF0 SHL DUP3 MSTORE PUSH1 0x4 CALLDATALOAD PUSH1 0x22 DUP3 ADD MSTORE PUSH1 0x24 CALLDATALOAD PUSH1 0x42 DUP3 ADD MSTORE PUSH1 0x42 DUP2 MSTORE PUSH2 0x181 PUSH1 0x62 DUP3 PUSH2 0x327 JUMP JUMPDEST CALLVALUE PUSH2 0xB9 JUMPI PUSH1 0x0 CALLDATASIZE PUSH1 0x3 NOT ADD SLT PUSH2 0xB9 JUMPI PUSH1 0x20 PUSH1 0x40 MLOAD PUSH32 0x6E71EDAE12B1B97F4D1F60370FEF10105FA2FAAE0126114A169C64845D6126C9 DUP2 MSTORE RETURN JUMPDEST CALLVALUE PUSH2 0xB9 JUMPI PUSH1 0x0 CALLDATASIZE PUSH1 0x3 NOT ADD SLT PUSH2 0xB9 JUMPI PUSH1 0x20 PUSH1 0x40 MLOAD PUSH32 0x8B73C3C69BB8FE3D512ECC4CF759CC79239F7B179B0FFACAA9A75D522B39400F DUP2 MSTORE RETURN JUMPDEST CALLVALUE PUSH2 0xB9 JUMPI PUSH1 0xA0 CALLDATASIZE PUSH1 0x3 NOT ADD SLT PUSH2 0xB9 JUMPI PUSH2 0x298 PUSH2 0x311 JUMP JUMPDEST PUSH1 0x24 CALLDATALOAD PUSH1 0x1 PUSH1 0x1 PUSH1 0xA0 SHL SUB DUP2 AND SWAP3 SWAP1 DUP4 SWAP1 SUB PUSH2 0xB9 JUMPI PUSH1 0x20 SWAP3 DUP4 DUP3 ADD SWAP3 PUSH32 0x6E71EDAE12B1B97F4D1F60370FEF10105FA2FAAE0126114A169C64845D6126C9 DUP5 MSTORE PUSH1 0x1 DUP1 PUSH1 0xA0 SHL SUB AND PUSH1 0x40 DUP4 ADD MSTORE PUSH1 0x60 DUP3 ADD MSTORE PUSH1 0x44 CALLDATALOAD PUSH1 0x80 DUP3 ADD MSTORE PUSH1 0x64 CALLDATALOAD PUSH1 0xA0 DUP3 ADD MSTORE PUSH1 0x84 CALLDATALOAD PUSH1 0xC0 DUP3 ADD MSTORE PUSH1 0xC0 DUP2 MSTORE PUSH2 0x181 PUSH1 0xE0 DUP3 PUSH2 0x327 JUMP JUMPDEST PUSH1 0x4 CALLDATALOAD SWAP1 PUSH1 0x1 PUSH1 0x1 PUSH1 0xA0 SHL SUB DUP3 AND DUP3 SUB PUSH2 0xB9 JUMPI JUMP JUMPDEST SWAP1 PUSH1 0x1F DUP1 NOT SWAP2 ADD AND DUP2 ADD SWAP1 DUP2 LT PUSH8 0xFFFFFFFFFFFFFFFF DUP3 GT OR PUSH2 0x349 JUMPI PUSH1 0x40 MSTORE JUMP JUMPDEST PUSH4 0x4E487B71 PUSH1 0xE0 SHL PUSH1 0x0 MSTORE PUSH1 0x41 PUSH1 0x4 MSTORE PUSH1 0x24 PUSH1 0x0 REVERT JUMPDEST SWAP2 SWAP1 SWAP2 PUSH1 0x20 DUP2 MSTORE DUP3 MLOAD DUP1 PUSH1 0x20 DUP4 ADD MSTORE PUSH1 0x0 JUMPDEST DUP2 DUP2 LT PUSH2 0x392 JUMPI POP PUSH1 0x40 SWAP3 SWAP4 POP PUSH1 0x0 DUP4 DUP3 DUP5 ADD ADD MSTORE PUSH1 0x1F DUP1 NOT SWAP2 ADD AND ADD ADD SWAP1 JUMP JUMPDEST DUP1 PUSH1 0x20 DUP1 SWAP3 DUP8 ADD ADD MLOAD PUSH1 0x40 DUP3 DUP7 ADD ADD MSTORE ADD PUSH2 0x371 JUMP INVALID LOG2 PUSH5 0x6970667358 0x22 SLT KECCAK256 SHR 0xFB 0xC2 SELFBALANCE 0x27 LOG0 0xF6 0xC SHL PUSH21 0xCF9B2096B6AE240E546ABB836DE16ED7FDC6F6BA3D SAR PUSH5 0x736F6C6343 STOP ADDMOD SHR STOP CALLER "
        },
        "methodIdentifiers": {
          "DOMAIN_TYPEHASH()": "20606b70",
          "EIP712_DOMAIN_NAME()": "fd070296",
          "EIP712_DOMAIN_VERSION()": "5cc33321",
          "PERMIT_TYPEHASH()": "30adf81f",
          "buildDomainSeparator(address,uint256)": "a3a406d2",
          "buildEIP712Hash(bytes32,bytes32)": "3b98dff9",
          "buildPermitHash(address,address,uint256,uint256,uint256)": "10cde363"
        }
      }
    }
  }
}