{
  "contracts/swapPermit.sol": {
    "SwapPermit": {
      "abi": [
        {
          "inputs": [],
          "name": "DeadlineExpired",
          "type": "error"
        },
        {
          "inputs": [],
          "name": "InsufficientAmount",
          "type": "error"
        },
        {
          "inputs": [],
          "name": "InvalidSignature",
          "type": "error"
        },
        {
          "inputs": [],
          "name": "SwapFailed",
          "type": "error"
        },
        {
          "anonymous": false,
          "inputs": [
            {
              "indexed": true,
              "internalType": "address",
              "name": "user",
              "type": "address"
            },
            {
              "indexed": true,
              "internalType": "address",
              "name": "tokenIn",
              "type": "address"
            },
            {
              "indexed": true,
              "internalType": "address",
              "name": "tokenOut",
              "type": "address"
            },
            {
              "indexed": false,
              "internalType": "uint256",
              "name": "amountIn",
              "type": "uint256"
            },
            {
              "indexed": false,
              "internalType": "uint256",
              "name": "amountOut",
              "type": "uint256"
            }
          ],
          "name": "SwapExecuted",
          "type": "event"
        },
        {
          "inputs": [],
          "name": "UNISWAP_ROUTER",
          "outputs": [
            {
              "internalType": "address",
              "name": "",
              "type": "address"
            }
          ],
          "stateMutability": "view",
          "type": "function"
        },
        {
          "inputs": [],
          "name": "eip712Helper",
          "outputs": [
            {
              "internalType": "contract EIP712Helper",
              "name": "",
              "type": "address"
            }
          ],
          "stateMutability": "view",
          "type": "function"
        },
        {
          "inputs": [
            {
              "internalType": "address",
              "name": "owner",
              "type": "address"
            },
            {
              "internalType": "uint256",
              "name": "amountIn",
              "type": "uint256"
            },
            {
              "internalType": "uint256",
              "name": "deadline",
              "type": "uint256"
            },
            {
              "internalType": "uint8",
              "name": "v",
              "type": "uint8"
            },
            {
              "internalType": "bytes32",
              "name": "r",
              "type": "bytes32"
            },
            {
              "internalType": "bytes32",
              "name": "s",
              "type": "bytes32"
            },
            {
              "internalType": "address",
              "name": "recipient",
              "type": "address"
            }
          ],
          "name": "swapDAIToUSDC",
          "outputs": [
            {
              "internalType": "uint256",
              "name": "amountOut",
              "type": "uint256"
            }
          ],
          "stateMutability": "nonpayable",
          "type": "function"
        },
        {
          "inputs": [
            {
              "internalType": "address",
              "name": "owner",
              "type": "address"
            },
            {
              "internalType": "address",
              "name": "tokenIn",
              "type": "address"
            },
            {
              "internalType": "uint256",
              "name": "permitAmount",
              "type": "uint256"
            },
            {
              "internalType": "uint256",
              "name": "deadline",
              "type": "uint256"
            },
            {
              "internalType": "uint8",
              "name": "v",
              "type": "uint8"
            },
            {
              "internalType": "bytes32",
              "name": "r",
              "type": "bytes32"
            },
            {
              "internalType": "bytes32",
              "name": "s",
              "type": "bytes32"
            },
            {
              "internalType": "uint256",
              "name": "swapAmountIn",
              "type": "uint256"
            },
            {
              "internalType": "uint256",
              "name": "swapAmountOutMin",
              "type": "uint256"
            },
            {
              "internalType": "address",
              "name": "tokenOut",
              "type": "address"
            },
            {
              "internalType": "address",
              "name": "recipient",
              "type": "address"
            },
            {
              "internalType": "uint256",
              "name": "swapDeadline",
              "type": "uint256"
            },
            {
              "internalType": "uint24",
              "name": "fee",
              "type": "uint24"
            }
          ],
          "name": "swapWithPermit",
          "outputs": [
            {
              "internalType": "uint256",
              "name": "amountOut",
              "type": "uint256"
            }
          ],
          "stateMutability": "nonpayable",
          "type": "function"
        }
      ],
      "evm": {
        "bytecode": {
          "linkReferences": {},
          "object": "60808060405234601557610627908161001b8239f35b600080fdfe608080604052600436101561001357600080fd5b600090813560e01c90816304afe81f146101ed5750806304e82dda146100a5578063c69060da1461007e5763d82649201461004d57600080fd5b3461007b578060031936011261007b57602060405173e592427a0aece92de3edee1f18e0157c058615648152f35b80fd5b503461007b578060031936011261007b57546040516001600160a01b039091168152602090f35b503461007b5760e036600319011261007b576100bf61058b565b90602435604435906064359060ff82168092036101e95760c4356001600160a01b03811692908390036101e557604051956304afe81f60e01b875260018060a01b03166004870152736b175474e89094c44da98b954eedeac495271d0f6024870152816044870152836064870152608486015260843560a486015260a43560c486015260e48501528261010485015273a0b86991c6218b36c1d19d4a2e9eb0ce3606eb48610124850152610144840152610164830152610bb86101848301526020826101a48184305af19081156101d957906101a1575b602090604051908152f35b506020813d6020116101d1575b816101bb602093836105a1565b810103126101cc5760209051610196565b600080fd5b3d91506101ae565b604051903d90823e3d90fd5b8480fd5b8380fd5b823461007b576101a036600319011261007b5761020861058b565b6024356001600160a01b0381169081900361058757604435606435926084359360ff85168095036105835760e43596610124356001600160a01b038116969087900361057f57610144356001600160a01b038116939084900361057b57610184359462ffffff86168096036105595781421161056c57868b1161055d57873b156105595763d505accf60e01b84526001600160a01b03166004840181905230602485015260448401969096526064830152608482015260a480359082015260c4803590820152868160e48183895af19081610545575b506102f257638baa579f60e01b8652600486fd5b6040516323b872dd60e01b81528360048201523060248201528760448201526020816064818a895af1801561051d57610528575b5060405163095ea7b360e01b815273e592427a0aece92de3edee1f18e0157c058615646004820152602481018890526020816044818a895af1801561051d576104f0575b5060405191610100830183811067ffffffffffffffff8211176104dc576040908152858452602080850188815285830193845260608601948552610164356080870190815260a087018c8152610104803560c08a0190815260e08a018e8152965163414bf38960e01b815299516001600160a01b0390811660048c01529451851660248b0152965162ffffff1660448a0152965183166064890152905160848801525160a4870152925160c4860152905190911660e4840152908290818873e592427a0aece92de3edee1f18e0157c058615645af19485156101d95794610486575b507f764f0dc063c06f32d89a3f3af80c0db4be8a090901f589a478b447e0a51f09f1604060209681519081528688820152a4604051908152f35b9493506020853d6020116104d4575b816104a2602093836105a1565b810103126101cc57935192937f764f0dc063c06f32d89a3f3af80c0db4be8a090901f589a478b447e0a51f09f161044c565b3d9150610495565b634e487b7160e01b88526041600452602488fd5b6105119060203d602011610516575b61050981836105a1565b8101906105d9565b61036a565b503d6104ff565b6040513d89823e3d90fd5b6105409060203d6020116105165761050981836105a1565b610326565b87610552919892986105a1565b95886102de565b8980fd5b632ca2f52b60e11b8a5260048afd5b631ab7da6b60e01b8a5260048afd5b8880fd5b8780fd5b8580fd5b8280fd5b600435906001600160a01b03821682036101cc57565b90601f8019910116810190811067ffffffffffffffff8211176105c357604052565b634e487b7160e01b600052604160045260246000fd5b908160209103126101cc575180151581036101cc579056fea2646970667358221220284012a359f3e2a5ce51ae47ba1339f98b5f965caa89cee2b7af571eff5cf4f964736f6c634300081c0033",
          "opcodes": "PUSH1 0x80 DUP1 PUSH1 0x40 MSTORE CALLVALUE PUSH1 0x15 JUMPI PUSH2 0x627 SWAP1 DUP2 PUSH2 0x1B DUP3 CODECOPY RETURN JUMPDEST PUSH1 0x0 DUP1 REVERT INVALID PUSH1 0x80 DUP1 PUSH1 0x40 MSTORE PUSH1 0x4 CALLDATASIZE LT ISZERO PUSH2 0x13 JUMPI PUSH1 0x0 DUP1 REVERT JUMPDEST PUSH1 0x0 SWAP1 DUP2 CALLDATALOAD PUSH1 0xE0 SHR SWAP1 DUP2 PUSH4 0x4AFE81F EQ PUSH2 0x1ED JUMPI POP DUP1 PUSH4 0x4E82DDA EQ PUSH2 0xA5 JUMPI DUP1 PUSH4 0xC69060DA EQ PUSH2 0x7E JUMPI PUSH4 0xD8264920 EQ PUSH2 0x4D JUMPI PUSH1 0x0 DUP1 REVERT JUMPDEST CALLVALUE PUSH2 0x7B JUMPI DUP1 PUSH1 0x3 NOT CALLDATASIZE ADD SLT PUSH2 0x7B JUMPI PUSH1 0x20 PUSH1 0x40 MLOAD PUSH20 0xE592427A0AECE92DE3EDEE1F18E0157C05861564 DUP2 MSTORE RETURN JUMPDEST DUP1 REVERT JUMPDEST POP CALLVALUE PUSH2 0x7B JUMPI DUP1 PUSH1 0x3 NOT CALLDATASIZE ADD SLT PUSH2 0x7B JUMPI SLOAD PUSH1 0x40 MLOAD PUSH1 0x1 PUSH1 0x1 PUSH1 0xA0 SHL SUB SWAP1 SWAP2 AND DUP2 MSTORE PUSH1 0x20 SWAP1 RETURN JUMPDEST POP CALLVALUE PUSH2 0x7B JUMPI PUSH1 0xE0 CALLDATASIZE PUSH1 0x3 NOT ADD SLT PUSH2 0x7B JUMPI PUSH2 0xBF PUSH2 0x58B JUMP JUMPDEST SWAP1 PUSH1 0x24 CALLDATALOAD PUSH1 0x44 CALLDATALOAD SWAP1 PUSH1 0x64 CALLDATALOAD SWAP1 PUSH1 0xFF DUP3 AND DUP1 SWAP3 SUB PUSH2 0x1E9 JUMPI PUSH1 0xC4 CALLDATALOAD PUSH1 0x1 PUSH1 0x1 PUSH1 0xA0 SHL SUB DUP2 AND SWAP3 SWAP1 DUP4 SWAP1 SUB PUSH2 0x1E5 JUMPI PUSH1 0x40 MLOAD SWAP6 PUSH4 0x4AFE81F PUSH1 0xE0 SHL DUP8 MSTORE PUSH1 0x1 DUP1 PUSH1 0xA0 SHL SUB AND PUSH1 0x4 DUP8 ADD MSTORE PUSH20 0x6B175474E89094C44DA98B954EEDEAC495271D0F PUSH1 0x24 DUP8 ADD MSTORE DUP2 PUSH1 0x44 DUP8 ADD MSTORE DUP4 PUSH1 0x64 DUP8 ADD MSTORE PUSH1 0x84 DUP7 ADD MSTORE PUSH1 0x84 CALLDATALOAD PUSH1 0xA4 DUP7 ADD MSTORE PUSH1 0xA4 CALLDATALOAD PUSH1 0xC4 DUP7 ADD MSTORE PUSH1 0xE4 DUP6 ADD MSTORE DUP3 PUSH2 0x104 DUP6 ADD MSTORE PUSH20 0xA0B86991C6218B36C1D19D4A2E9EB0CE3606EB48 PUSH2 0x124 DUP6 ADD MSTORE PUSH2 0x144 DUP5 ADD MSTORE PUSH2 0x164 DUP4 ADD MSTORE PUSH2 0xBB8 PUSH2 0x184 DUP4 ADD MSTORE PUSH1 0x20 DUP3 PUSH2 0x1A4 DUP2 DUP5 ADDRESS GAS CALL SWAP1 DUP2 ISZERO PUSH2 0x1D9 JUMPI SWAP1 PUSH2 0x1A1 JUMPI JUMPDEST PUSH1 0x20 SWAP1 PUSH1 0x40 MLOAD SWAP1 DUP2 MSTORE RETURN JUMPDEST POP PUSH1 0x20 DUP2 RETURNDATASIZE PUSH1 0x20 GT PUSH2 0x1D1 JUMPI JUMPDEST DUP2 PUSH2 0x1BB PUSH1 0x20 SWAP4 DUP4 PUSH2 0x5A1 JUMP JUMPDEST DUP2 ADD SUB SLT PUSH2 0x1CC JUMPI PUSH1 0x20 SWAP1 MLOAD PUSH2 0x196 JUMP JUMPDEST PUSH1 0x0 DUP1 REVERT JUMPDEST RETURNDATASIZE SWAP2 POP PUSH2 0x1AE JUMP JUMPDEST PUSH1 0x40 MLOAD SWAP1 RETURNDATASIZE SWAP1 DUP3 RETURNDATACOPY RETURNDATASIZE SWAP1 REVERT JUMPDEST DUP5 DUP1 REVERT JUMPDEST DUP4 DUP1 REVERT JUMPDEST DUP3 CALLVALUE PUSH2 0x7B JUMPI PUSH2 0x1A0 CALLDATASIZE PUSH1 0x3 NOT ADD SLT PUSH2 0x7B JUMPI PUSH2 0x208 PUSH2 0x58B JUMP JUMPDEST PUSH1 0x24 CALLDATALOAD PUSH1 0x1 PUSH1 0x1 PUSH1 0xA0 SHL SUB DUP2 AND SWAP1 DUP2 SWAP1 SUB PUSH2 0x587 JUMPI PUSH1 0x44 CALLDATALOAD PUSH1 0x64 CALLDATALOAD SWAP3 PUSH1 0x84 CALLDATALOAD SWAP4 PUSH1 0xFF DUP6 AND DUP1 SWAP6 SUB PUSH2 0x583 JUMPI PUSH1 0xE4 CALLDATALOAD SWAP7 PUSH2 0x124 CALLDATALOAD PUSH1 0x1 PUSH1 0x1 PUSH1 0xA0 SHL SUB DUP2 AND SWAP7 SWAP1 DUP8 SWAP1 SUB PUSH2 0x57F JUMPI PUSH2 0x144 CALLDATALOAD PUSH1 0x1 PUSH1 0x1 PUSH1 0xA0 SHL SUB DUP2 AND SWAP4 SWAP1 DUP5 SWAP1 SUB PUSH2 0x57B JUMPI PUSH2 0x184 CALLDATALOAD SWAP5 PUSH3 0xFFFFFF DUP7 AND DUP1 SWAP7 SUB PUSH2 0x559 JUMPI DUP2 TIMESTAMP GT PUSH2 0x56C JUMPI DUP7 DUP12 GT PUSH2 0x55D JUMPI DUP8 EXTCODESIZE ISZERO PUSH2 0x559 JUMPI PUSH4 0xD505ACCF PUSH1 0xE0 SHL DUP5 MSTORE PUSH1 0x1 PUSH1 0x1 PUSH1 0xA0 SHL SUB AND PUSH1 0x4 DUP5 ADD DUP2 SWAP1 MSTORE ADDRESS PUSH1 0x24 DUP6 ADD MSTORE PUSH1 0x44 DUP5 ADD SWAP7 SWAP1 SWAP7 MSTORE PUSH1 0x64 DUP4 ADD MSTORE PUSH1 0x84 DUP3 ADD MSTORE PUSH1 0xA4 DUP1 CALLDATALOAD SWAP1 DUP3 ADD MSTORE PUSH1 0xC4 DUP1 CALLDATALOAD SWAP1 DUP3 ADD MSTORE DUP7 DUP2 PUSH1 0xE4 DUP2 DUP4 DUP10 GAS CALL SWAP1 DUP2 PUSH2 0x545 JUMPI JUMPDEST POP PUSH2 0x2F2 JUMPI PUSH4 0x8BAA579F PUSH1 0xE0 SHL DUP7 MSTORE PUSH1 0x4 DUP7 REVERT JUMPDEST PUSH1 0x40 MLOAD PUSH4 0x23B872DD PUSH1 0xE0 SHL DUP2 MSTORE DUP4 PUSH1 0x4 DUP3 ADD MSTORE ADDRESS PUSH1 0x24 DUP3 ADD MSTORE DUP8 PUSH1 0x44 DUP3 ADD MSTORE PUSH1 0x20 DUP2 PUSH1 0x64 DUP2 DUP11 DUP10 GAS CALL DUP1 ISZERO PUSH2 0x51D JUMPI PUSH2 0x528 JUMPI JUMPDEST POP PUSH1 0x40 MLOAD PUSH4 0x95EA7B3 PUSH1 0xE0 SHL DUP2 MSTORE PUSH20 0xE592427A0AECE92DE3EDEE1F18E0157C05861564 PUSH1 0x4 DUP3 ADD MSTORE PUSH1 0x24 DUP2 ADD DUP9 SWAP1 MSTORE PUSH1 0x20 DUP2 PUSH1 0x44 DUP2 DUP11 DUP10 GAS CALL DUP1 ISZERO PUSH2 0x51D JUMPI PUSH2 0x4F0 JUMPI JUMPDEST POP PUSH1 0x40 MLOAD SWAP2 PUSH2 0x100 DUP4 ADD DUP4 DUP2 LT PUSH8 0xFFFFFFFFFFFFFFFF DUP3 GT OR PUSH2 0x4DC JUMPI PUSH1 0x40 SWAP1 DUP2 MSTORE DUP6 DUP5 MSTORE PUSH1 0x20 DUP1 DUP6 ADD DUP9 DUP2 MSTORE DUP6 DUP4 ADD SWAP4 DUP5 MSTORE PUSH1 0x60 DUP7 ADD SWAP5 DUP6 MSTORE PUSH2 0x164 CALLDATALOAD PUSH1 0x80 DUP8 ADD SWAP1 DUP2 MSTORE PUSH1 0xA0 DUP8 ADD DUP13 DUP2 MSTORE PUSH2 0x104 DUP1 CALLDATALOAD PUSH1 0xC0 DUP11 ADD SWAP1 DUP2 MSTORE PUSH1 0xE0 DUP11 ADD DUP15 DUP2 MSTORE SWAP7 MLOAD PUSH4 0x414BF389 PUSH1 0xE0 SHL DUP2 MSTORE SWAP10 MLOAD PUSH1 0x1 PUSH1 0x1 PUSH1 0xA0 SHL SUB SWAP1 DUP2 AND PUSH1 0x4 DUP13 ADD MSTORE SWAP5 MLOAD DUP6 AND PUSH1 0x24 DUP12 ADD MSTORE SWAP7 MLOAD PUSH3 0xFFFFFF AND PUSH1 0x44 DUP11 ADD MSTORE SWAP7 MLOAD DUP4 AND PUSH1 0x64 DUP10 ADD MSTORE SWAP1 MLOAD PUSH1 0x84 DUP9 ADD MSTORE MLOAD PUSH1 0xA4 DUP8 ADD MSTORE SWAP3 MLOAD PUSH1 0xC4 DUP7 ADD MSTORE SWAP1 MLOAD SWAP1 SWAP2 AND PUSH1 0xE4 DUP5 ADD MSTORE SWAP1 DUP3 SWAP1 DUP2 DUP9 PUSH20 0xE592427A0AECE92DE3EDEE1F18E0157C05861564 GAS CALL SWAP5 DUP6 ISZERO PUSH2 0x1D9 JUMPI SWAP5 PUSH2 0x486 JUMPI JUMPDEST POP PUSH32 0x764F0DC063C06F32D89A3F3AF80C0DB4BE8A090901F589A478B447E0A51F09F1 PUSH1 0x40 PUSH1 0x20 SWAP7 DUP2 MLOAD SWAP1 DUP2 MSTORE DUP7 DUP9 DUP3 ADD MSTORE LOG4 PUSH1 0x40 MLOAD SWAP1 DUP2 MSTORE RETURN JUMPDEST SWAP5 SWAP4 POP PUSH1 0x20 DUP6 RETURNDATASIZE PUSH1 0x20 GT PUSH2 0x4D4 JUMPI JUMPDEST DUP2 PUSH2 0x4A2 PUSH1 0x20 SWAP4 DUP4 PUSH2 0x5A1 JUMP JUMPDEST DUP2 ADD SUB SLT PUSH2 0x1CC JUMPI SWAP4 MLOAD SWAP3 SWAP4 PUSH32 0x764F0DC063C06F32D89A3F3AF80C0DB4BE8A090901F589A478B447E0A51F09F1 PUSH2 0x44C JUMP JUMPDEST RETURNDATASIZE SWAP2 POP PUSH2 0x495 JUMP JUMPDEST PUSH4 0x4E487B71 PUSH1 0xE0 SHL DUP9 MSTORE PUSH1 0x41 PUSH1 0x4 MSTORE PUSH1 0x24 DUP9 REVERT JUMPDEST PUSH2 0x511 SWAP1 PUSH1 0x20 RETURNDATASIZE PUSH1 0x20 GT PUSH2 0x516 JUMPI JUMPDEST PUSH2 0x509 DUP2 DUP4 PUSH2 0x5A1 JUMP JUMPDEST DUP2 ADD SWAP1 PUSH2 0x5D9 JUMP JUMPDEST PUSH2 0x36A JUMP JUMPDEST POP RETURNDATASIZE PUSH2 0x4FF JUMP JUMPDEST PUSH1 0x40 MLOAD RETURNDATASIZE DUP10 DUP3 RETURNDATACOPY RETURNDATASIZE SWAP1 REVERT JUMPDEST PUSH2 0x540 SWAP1 PUSH1 0x20 RETURNDATASIZE PUSH1 0x20 GT PUSH2 0x516 JUMPI PUSH2 0x509 DUP2 DUP4 PUSH2 0x5A1 JUMP JUMPDEST PUSH2 0x326 JUMP JUMPDEST DUP8 PUSH2 0x552 SWAP2 SWAP9 SWAP3 SWAP9 PUSH2 0x5A1 JUMP JUMPDEST SWAP6 DUP9 PUSH2 0x2DE JUMP JUMPDEST DUP10 DUP1 REVERT JUMPDEST PUSH4 0x2CA2F52B PUSH1 0xE1 SHL DUP11 MSTORE PUSH1 0x4 DUP11 REVERT JUMPDEST PUSH4 0x1AB7DA6B PUSH1 0xE0 SHL DUP11 MSTORE PUSH1 0x4 DUP11 REVERT JUMPDEST DUP9 DUP1 REVERT JUMPDEST DUP8 DUP1 REVERT JUMPDEST DUP6 DUP1 REVERT JUMPDEST DUP3 DUP1 REVERT JUMPDEST PUSH1 0x4 CALLDATALOAD SWAP1 PUSH1 0x1 PUSH1 0x1 PUSH1 0xA0 SHL SUB DUP3 AND DUP3 SUB PUSH2 0x1CC JUMPI JUMP JUMPDEST SWAP1 PUSH1 0x1F DUP1 NOT SWAP2 ADD AND DUP2 ADD SWAP1 DUP2 LT PUSH8 0xFFFFFFFFFFFFFFFF DUP3 GT OR PUSH2 0x5C3 JUMPI PUSH1 0x40 MSTORE JUMP JUMPDEST PUSH4 0x4E487B71 PUSH1 0xE0 SHL PUSH1 0x0 MSTORE PUSH1 0x41 PUSH1 0x4 MSTORE PUSH1 0x24 PUSH1 0x0 REVERT JUMPDEST SWAP1 DUP2 PUSH1 0x20 SWAP2 SUB SLT PUSH2 0x1CC JUMPI MLOAD DUP1 ISZERO ISZERO DUP2 SUB PUSH2 0x1CC JUMPI SWAP1 JUMP INVALID LOG2 PUSH5 0x6970667358 0x22 SLT KECCAK256 0x28 BLOCKHASH SLT LOG3 MSIZE RETURN 0xE2 0xA5 0xCE MLOAD 0xAE SELFBALANCE 0xBA SGT CODECOPY 0xF9 DUP12 PUSH0 SWAP7 TLOAD 0xAA DUP10 0xCE 0xE2 0xB7 0xAF JUMPI 0x1E SELFDESTRUCT TLOAD DELEGATECALL 0xF9 PUSH5 0x736F6C6343 STOP ADDMOD SHR STOP CALLER "
        },
        "methodIdentifiers": {
          "UNISWAP_ROUTER()": "d8264920",
          "eip712Helper()": "c69060da",
          "swapDAIToUSDC(address,uint256,uint256,uint8,bytes32,bytes32,address)": "04e82dda",
          "swapWithPermit(address,address,uint256,uint256,uint8,bytes32,bytes32,uint256,uint256,address,address,uint256,uint24)": "04afe81f"
        }
      }
    }
  }
}