{
  "_format": "hh-sol-artifact-1",
  "contractName": "PiggyBank",
  "sourceName": "contracts/PiggyBank.sol",
  "abi": [
    {
      "inputs": [],
      "stateMutability": "nonpayable",
      "type": "constructor"
    },
    {
      "inputs": [],
      "name": "AmountMismatch",
      "type": "error"
    },
    {
      "inputs": [],
      "name": "ArrayLengthMismatch",
      "type": "error"
    },
    {
      "inputs": [],
      "name": "DuplicateLockPeriod",
      "type": "error"
    },
    {
      "inputs": [],
      "name": "ERC20TransferFailed",
      "type": "error"
    },
    {
      "inputs": [],
      "name": "InsufficientBalance",
      "type": "error"
    },
    {
      "inputs": [],
      "name": "InvalidAccountId",
      "type": "error"
    },
    {
      "inputs": [],
      "name": "InvalidLockPeriod",
      "type": "error"
    },
    {
      "inputs": [],
      "name": "NoAccountsProvided",
      "type": "error"
    },
    {
      "inputs": [],
      "name": "TransferFailed",
      "type": "error"
    },
    {
      "inputs": [],
      "name": "ZeroAmount",
      "type": "error"
    },
    {
      "inputs": [],
      "name": "ZeroDeposit",
      "type": "error"
    },
    {
      "anonymous": false,
      "inputs": [
        {
          "indexed": true,
          "internalType": "address",
          "name": "user",
          "type": "address"
        },
        {
          "indexed": false,
          "internalType": "address[]",
          "name": "tokens",
          "type": "address[]"
        },
        {
          "indexed": false,
          "internalType": "uint256[]",
          "name": "lockPeriods",
          "type": "uint256[]"
        },
        {
          "indexed": false,
          "internalType": "string[]",
          "name": "userNames",
          "type": "string[]"
        }
      ],
      "name": "AccountsCreated",
      "type": "event"
    },
    {
      "anonymous": false,
      "inputs": [
        {
          "indexed": true,
          "internalType": "address",
          "name": "user",
          "type": "address"
        },
        {
          "indexed": false,
          "internalType": "uint256",
          "name": "accountId",
          "type": "uint256"
        },
        {
          "indexed": false,
          "internalType": "uint256",
          "name": "amount",
          "type": "uint256"
        },
        {
          "indexed": false,
          "internalType": "address",
          "name": "token",
          "type": "address"
        }
      ],
      "name": "Deposited",
      "type": "event"
    },
    {
      "anonymous": false,
      "inputs": [
        {
          "indexed": true,
          "internalType": "address",
          "name": "user",
          "type": "address"
        },
        {
          "indexed": false,
          "internalType": "uint256",
          "name": "accountId",
          "type": "uint256"
        },
        {
          "indexed": false,
          "internalType": "uint256",
          "name": "amount",
          "type": "uint256"
        },
        {
          "indexed": false,
          "internalType": "uint256",
          "name": "fee",
          "type": "uint256"
        },
        {
          "indexed": false,
          "internalType": "address",
          "name": "token",
          "type": "address"
        }
      ],
      "name": "Withdrawn",
      "type": "event"
    },
    {
      "inputs": [],
      "name": "admin",
      "outputs": [
        {
          "internalType": "address",
          "name": "",
          "type": "address"
        }
      ],
      "stateMutability": "view",
      "type": "function"
    },
    {
      "inputs": [
        {
          "internalType": "address[]",
          "name": "_tokens",
          "type": "address[]"
        },
        {
          "internalType": "uint256[]",
          "name": "_lockPeriods",
          "type": "uint256[]"
        },
        {
          "internalType": "string[]",
          "name": "_userNames",
          "type": "string[]"
        }
      ],
      "name": "create_multiple_savings_account",
      "outputs": [],
      "stateMutability": "nonpayable",
      "type": "function"
    },
    {
      "inputs": [
        {
          "internalType": "uint256",
          "name": "_accountId",
          "type": "uint256"
        },
        {
          "internalType": "uint256",
          "name": "_amount",
          "type": "uint256"
        }
      ],
      "name": "save_erc20_or_ethers",
      "outputs": [],
      "stateMutability": "payable",
      "type": "function"
    },
    {
      "inputs": [],
      "name": "track_user_savingAccount_number",
      "outputs": [
        {
          "internalType": "uint256",
          "name": "",
          "type": "uint256"
        }
      ],
      "stateMutability": "view",
      "type": "function"
    },
    {
      "inputs": [
        {
          "internalType": "address",
          "name": "",
          "type": "address"
        }
      ],
      "name": "userAccountCount",
      "outputs": [
        {
          "internalType": "uint256",
          "name": "",
          "type": "uint256"
        }
      ],
      "stateMutability": "view",
      "type": "function"
    },
    {
      "inputs": [
        {
          "internalType": "address",
          "name": "",
          "type": "address"
        },
        {
          "internalType": "uint256",
          "name": "",
          "type": "uint256"
        }
      ],
      "name": "userSavings",
      "outputs": [
        {
          "internalType": "address",
          "name": "token",
          "type": "address"
        },
        {
          "internalType": "uint256",
          "name": "lockPeriod",
          "type": "uint256"
        },
        {
          "internalType": "uint256",
          "name": "lockEnd",
          "type": "uint256"
        },
        {
          "internalType": "uint256",
          "name": "balance",
          "type": "uint256"
        },
        {
          "internalType": "string",
          "name": "userName",
          "type": "string"
        }
      ],
      "stateMutability": "view",
      "type": "function"
    },
    {
      "inputs": [],
      "name": "user_balance",
      "outputs": [
        {
          "internalType": "uint256[]",
          "name": "accountIds",
          "type": "uint256[]"
        },
        {
          "internalType": "uint256[]",
          "name": "balances",
          "type": "uint256[]"
        }
      ],
      "stateMutability": "view",
      "type": "function"
    },
    {
      "inputs": [
        {
          "internalType": "uint256",
          "name": "_accountId",
          "type": "uint256"
        },
        {
          "internalType": "uint256",
          "name": "_amount",
          "type": "uint256"
        }
      ],
      "name": "withdraw_funds",
      "outputs": [],
      "stateMutability": "nonpayable",
      "type": "function"
    }
  ],
  "bytecode": "0x6080604052348015600f57600080fd5b5033600260006101000a81548173ffffffffffffffffffffffffffffffffffffffff021916908373ffffffffffffffffffffffffffffffffffffffff160217905550612345806100606000396000f3fe60806040526004361061007b5760003560e01c8063d3da43b31161004e578063d3da43b314610145578063dd04139314610171578063e05003e21461019a578063f851a440146101c35761007b565b80630ae98af1146100805780633142cf501461009c5780635950850f146100d9578063c60bd08f1461011a575b600080fd5b61009a60048036038101906100959190611468565b6101ee565b005b3480156100a857600080fd5b506100c360048036038101906100be9190611506565b610566565b6040516100d09190611542565b60405180910390f35b3480156100e557600080fd5b5061010060048036038101906100fb919061155d565b61057e565b60405161011195949392919061163c565b60405180910390f35b34801561012657600080fd5b5061012f610679565b60405161013c9190611542565b60405180910390f35b34801561015157600080fd5b5061015a6106c0565b604051610168929190611754565b60405180910390f35b34801561017d57600080fd5b506101986004803603810190610193919061189c565b61085e565b005b3480156101a657600080fd5b506101c160048036038101906101bc9190611468565b610dc3565b005b3480156101cf57600080fd5b506101d8611402565b6040516101e59190611950565b60405180910390f35b6000803373ffffffffffffffffffffffffffffffffffffffff1673ffffffffffffffffffffffffffffffffffffffff168152602001908152602001600020805490508210610268576040517f355e4a0c00000000000000000000000000000000000000000000000000000000815260040160405180910390fd5b60008060003373ffffffffffffffffffffffffffffffffffffffff1673ffffffffffffffffffffffffffffffffffffffff16815260200190815260200160002083815481106102ba576102b961196b565b5b9060005260206000209060050201905060008073ffffffffffffffffffffffffffffffffffffffff168260000160009054906101000a900473ffffffffffffffffffffffffffffffffffffffff1673ffffffffffffffffffffffffffffffffffffffff1614905080156103ba5760003403610361576040517f56316e8700000000000000000000000000000000000000000000000000000000815260040160405180910390fd5b34831461039a576040517f55e97b0d00000000000000000000000000000000000000000000000000000000815260040160405180910390fd5b348260030160008282546103ae91906119c9565b925050819055506104ea565b600083036103f4576040517f56316e8700000000000000000000000000000000000000000000000000000000815260040160405180910390fd5b8160000160009054906101000a900473ffffffffffffffffffffffffffffffffffffffff1673ffffffffffffffffffffffffffffffffffffffff166323b872dd3330866040518463ffffffff1660e01b8152600401610455939291906119fd565b6020604051808303816000875af1158015610474573d6000803e3d6000fd5b505050506040513d601f19601f820116820180604052508101906104989190611a6c565b6104ce576040517ff27f64e400000000000000000000000000000000000000000000000000000000815260040160405180910390fd5b828260030160008282546104e291906119c9565b925050819055505b3373ffffffffffffffffffffffffffffffffffffffff167fa49637e3f6491de6c2c23c5006bef69df603d0dba9d65c8b756fe46ac29810b985858560000160009054906101000a900473ffffffffffffffffffffffffffffffffffffffff1660405161055893929190611a99565b60405180910390a250505050565b60016020528060005260406000206000915090505481565b6000602052816000526040600020818154811061059a57600080fd5b9060005260206000209060050201600091509150508060000160009054906101000a900473ffffffffffffffffffffffffffffffffffffffff16908060010154908060020154908060030154908060040180546105f690611aff565b80601f016020809104026020016040519081016040528092919081815260200182805461062290611aff565b801561066f5780601f106106445761010080835404028352916020019161066f565b820191906000526020600020905b81548152906001019060200180831161065257829003601f168201915b5050505050905085565b6000600160003373ffffffffffffffffffffffffffffffffffffffff1673ffffffffffffffffffffffffffffffffffffffff16815260200190815260200160002054905090565b60608060008060003373ffffffffffffffffffffffffffffffffffffffff1673ffffffffffffffffffffffffffffffffffffffff1681526020019081526020016000208054905090508067ffffffffffffffff81111561072357610722611b30565b5b6040519080825280602002602001820160405280156107515781602001602082028036833780820191505090505b5092508067ffffffffffffffff81111561076e5761076d611b30565b5b60405190808252806020026020018201604052801561079c5781602001602082028036833780820191505090505b50915060005b8181101561085857808482815181106107be576107bd61196b565b5b6020026020010181815250506000803373ffffffffffffffffffffffffffffffffffffffff1673ffffffffffffffffffffffffffffffffffffffff168152602001908152602001600020818154811061081a5761081961196b565b5b90600052602060002090600502016003015483828151811061083f5761083e61196b565b5b60200260200101818152505080806001019150506107a2565b50509091565b83839050868690501415806108795750818190508686905014155b156108b0576040517fa24a13a600000000000000000000000000000000000000000000000000000000815260040160405180910390fd5b600086869050036108ed576040517f923260e700000000000000000000000000000000000000000000000000000000815260040160405180910390fd5b60005b84849050811015610afe5760008585838181106109105761090f61196b565b5b905060200201350361094e576040517f2a82a34f00000000000000000000000000000000000000000000000000000000815260040160405180910390fd5b60005b6000803373ffffffffffffffffffffffffffffffffffffffff1673ffffffffffffffffffffffffffffffffffffffff16815260200190815260200160002080549050811015610a5a578585838181106109ad576109ac61196b565b5b905060200201356000803373ffffffffffffffffffffffffffffffffffffffff1673ffffffffffffffffffffffffffffffffffffffff1681526020019081526020016000208281548110610a0457610a0361196b565b5b90600052602060002090600502016001015403610a4d576040517ffd434dd600000000000000000000000000000000000000000000000000000000815260040160405180910390fd5b8080600101915050610951565b506000600182610a6a91906119c9565b90505b85859050811015610af057858582818110610a8b57610a8a61196b565b5b90506020020135868684818110610aa557610aa461196b565b5b9050602002013503610ae3576040517ffd434dd600000000000000000000000000000000000000000000000000000000815260040160405180910390fd5b8080600101915050610a6d565b5080806001019150506108f0565b5060005b86869050811015610d62576000858583818110610b2257610b2161196b565b5b9050602002013542610b3491906119c9565b90506000803373ffffffffffffffffffffffffffffffffffffffff1673ffffffffffffffffffffffffffffffffffffffff1681526020019081526020016000206040518060a001604052808a8a86818110610b9257610b9161196b565b5b9050602002016020810190610ba79190611506565b73ffffffffffffffffffffffffffffffffffffffff168152602001888886818110610bd557610bd461196b565b5b90506020020135815260200183815260200160008152602001868686818110610c0157610c0061196b565b5b9050602002810190610c139190611b6e565b8080601f016020809104026020016040519081016040528093929190818152602001838380828437600081840152601f19601f82011690508083019250505050505050815250908060018154018082558091505060019003906000526020600020906005020160009091909190915060008201518160000160006101000a81548173ffffffffffffffffffffffffffffffffffffffff021916908373ffffffffffffffffffffffffffffffffffffffff1602179055506020820151816001015560408201518160020155606082015181600301556080820151816004019081610cfc9190611d7d565b505050600160003373ffffffffffffffffffffffffffffffffffffffff1673ffffffffffffffffffffffffffffffffffffffff1681526020019081526020016000206000815480929190610d4f90611e4f565b9190505550508080600101915050610b02565b503373ffffffffffffffffffffffffffffffffffffffff167fd448acd68da4ef32136664db8f62cc0770a1f2e483d4cc893ef5ae1f30f851dc878787878787604051610db396959493929190612137565b60405180910390a2505050505050565b6000803373ffffffffffffffffffffffffffffffffffffffff1673ffffffffffffffffffffffffffffffffffffffff168152602001908152602001600020805490508210610e3d576040517f355e4a0c00000000000000000000000000000000000000000000000000000000815260040160405180910390fd5b60008103610e77576040517f1f2a200500000000000000000000000000000000000000000000000000000000815260040160405180910390fd5b60008060003373ffffffffffffffffffffffffffffffffffffffff1673ffffffffffffffffffffffffffffffffffffffff1681526020019081526020016000208381548110610ec957610ec861196b565b5b906000526020600020906005020190508060030154821115610f17576040517ff4d678b800000000000000000000000000000000000000000000000000000000815260040160405180910390fd5b60008073ffffffffffffffffffffffffffffffffffffffff168260000160009054906101000a900473ffffffffffffffffffffffffffffffffffffffff1673ffffffffffffffffffffffffffffffffffffffff161490506000826002015442109050600081610f87576000610fa1565b6064600386610f969190612189565b610fa091906121fa565b5b905060008186610fb1919061222b565b905085856003016000828254610fc7919061222b565b9250508190555083156110cd578547101561100e576040517ff4d678b800000000000000000000000000000000000000000000000000000000815260040160405180910390fd5b600082111561108157600260009054906101000a900473ffffffffffffffffffffffffffffffffffffffff1673ffffffffffffffffffffffffffffffffffffffff166108fc839081150290604051600060405180830381858888f1935050505015801561107f573d6000803e3d6000fd5b505b3373ffffffffffffffffffffffffffffffffffffffff166108fc829081150290604051600060405180830381858888f193505050501580156110c7573d6000803e3d6000fd5b50611381565b858560000160009054906101000a900473ffffffffffffffffffffffffffffffffffffffff1673ffffffffffffffffffffffffffffffffffffffff166370a08231306040518263ffffffff1660e01b815260040161112b9190611950565b602060405180830381865afa158015611148573d6000803e3d6000fd5b505050506040513d601f19601f8201168201806040525081019061116c9190612274565b10156111a4576040517ff4d678b800000000000000000000000000000000000000000000000000000000815260040160405180910390fd5b60008211156112a8578460000160009054906101000a900473ffffffffffffffffffffffffffffffffffffffff1673ffffffffffffffffffffffffffffffffffffffff1663a9059cbb600260009054906101000a900473ffffffffffffffffffffffffffffffffffffffff16846040518363ffffffff1660e01b815260040161122e9291906122a1565b6020604051808303816000875af115801561124d573d6000803e3d6000fd5b505050506040513d601f19601f820116820180604052508101906112719190611a6c565b6112a7576040517f90b8ec1800000000000000000000000000000000000000000000000000000000815260040160405180910390fd5b5b8460000160009054906101000a900473ffffffffffffffffffffffffffffffffffffffff1673ffffffffffffffffffffffffffffffffffffffff1663a9059cbb33836040518363ffffffff1660e01b81526004016113079291906122a1565b6020604051808303816000875af1158015611326573d6000803e3d6000fd5b505050506040513d601f19601f8201168201806040525081019061134a9190611a6c565b611380576040517f90b8ec1800000000000000000000000000000000000000000000000000000000815260040160405180910390fd5b5b3373ffffffffffffffffffffffffffffffffffffffff167f0c5aed25862e7dc352820011905746d6b9a18a05798d140d202f6410c1957e2e8883858960000160009054906101000a900473ffffffffffffffffffffffffffffffffffffffff166040516113f194939291906122ca565b60405180910390a250505050505050565b600260009054906101000a900473ffffffffffffffffffffffffffffffffffffffff1681565b600080fd5b600080fd5b6000819050919050565b61144581611432565b811461145057600080fd5b50565b6000813590506114628161143c565b92915050565b6000806040838503121561147f5761147e611428565b5b600061148d85828601611453565b925050602061149e85828601611453565b9150509250929050565b600073ffffffffffffffffffffffffffffffffffffffff82169050919050565b60006114d3826114a8565b9050919050565b6114e3816114c8565b81146114ee57600080fd5b50565b600081359050611500816114da565b92915050565b60006020828403121561151c5761151b611428565b5b600061152a848285016114f1565b91505092915050565b61153c81611432565b82525050565b60006020820190506115576000830184611533565b92915050565b6000806040838503121561157457611573611428565b5b6000611582858286016114f1565b925050602061159385828601611453565b9150509250929050565b6115a6816114c8565b82525050565b600081519050919050565b600082825260208201905092915050565b60005b838110156115e65780820151818401526020810190506115cb565b60008484015250505050565b6000601f19601f8301169050919050565b600061160e826115ac565b61161881856115b7565b93506116288185602086016115c8565b611631816115f2565b840191505092915050565b600060a082019050611651600083018861159d565b61165e6020830187611533565b61166b6040830186611533565b6116786060830185611533565b818103608083015261168a8184611603565b90509695505050505050565b600081519050919050565b600082825260208201905092915050565b6000819050602082019050919050565b6116cb81611432565b82525050565b60006116dd83836116c2565b60208301905092915050565b6000602082019050919050565b600061170182611696565b61170b81856116a1565b9350611716836116b2565b8060005b8381101561174757815161172e88826116d1565b9750611739836116e9565b92505060018101905061171a565b5085935050505092915050565b6000604082019050818103600083015261176e81856116f6565b9050818103602083015261178281846116f6565b90509392505050565b600080fd5b600080fd5b600080fd5b60008083601f8401126117b0576117af61178b565b5b8235905067ffffffffffffffff8111156117cd576117cc611790565b5b6020830191508360208202830111156117e9576117e8611795565b5b9250929050565b60008083601f8401126118065761180561178b565b5b8235905067ffffffffffffffff81111561182357611822611790565b5b60208301915083602082028301111561183f5761183e611795565b5b9250929050565b60008083601f84011261185c5761185b61178b565b5b8235905067ffffffffffffffff81111561187957611878611790565b5b60208301915083602082028301111561189557611894611795565b5b9250929050565b600080600080600080606087890312156118b9576118b8611428565b5b600087013567ffffffffffffffff8111156118d7576118d661142d565b5b6118e389828a0161179a565b9650965050602087013567ffffffffffffffff8111156119065761190561142d565b5b61191289828a016117f0565b9450945050604087013567ffffffffffffffff8111156119355761193461142d565b5b61194189828a01611846565b92509250509295509295509295565b6000602082019050611965600083018461159d565b92915050565b7f4e487b7100000000000000000000000000000000000000000000000000000000600052603260045260246000fd5b7f4e487b7100000000000000000000000000000000000000000000000000000000600052601160045260246000fd5b60006119d482611432565b91506119df83611432565b92508282019050808211156119f7576119f661199a565b5b92915050565b6000606082019050611a12600083018661159d565b611a1f602083018561159d565b611a2c6040830184611533565b949350505050565b60008115159050919050565b611a4981611a34565b8114611a5457600080fd5b50565b600081519050611a6681611a40565b92915050565b600060208284031215611a8257611a81611428565b5b6000611a9084828501611a57565b91505092915050565b6000606082019050611aae6000830186611533565b611abb6020830185611533565b611ac8604083018461159d565b949350505050565b7f4e487b7100000000000000000000000000000000000000000000000000000000600052602260045260246000fd5b60006002820490506001821680611b1757607f821691505b602082108103611b2a57611b29611ad0565b5b50919050565b7f4e487b7100000000000000000000000000000000000000000000000000000000600052604160045260246000fd5b600080fd5b600080fd5b600080fd5b60008083356001602003843603038112611b8b57611b8a611b5f565b5b80840192508235915067ffffffffffffffff821115611bad57611bac611b64565b5b602083019250600182023603831315611bc957611bc8611b69565b5b509250929050565b60008190508160005260206000209050919050565b60006020601f8301049050919050565b600082821b905092915050565b600060088302611c337fffffffffffffffffffffffffffffffffffffffffffffffffffffffffffffffff82611bf6565b611c3d8683611bf6565b95508019841693508086168417925050509392505050565b6000819050919050565b6000611c7a611c75611c7084611432565b611c55565b611432565b9050919050565b6000819050919050565b611c9483611c5f565b611ca8611ca082611c81565b848454611c03565b825550505050565b600090565b611cbd611cb0565b611cc8818484611c8b565b505050565b5b81811015611cec57611ce1600082611cb5565b600181019050611cce565b5050565b601f821115611d3157611d0281611bd1565b611d0b84611be6565b81016020851015611d1a578190505b611d2e611d2685611be6565b830182611ccd565b50505b505050565b600082821c905092915050565b6000611d5460001984600802611d36565b1980831691505092915050565b6000611d6d8383611d43565b9150826002028217905092915050565b611d86826115ac565b67ffffffffffffffff811115611d9f57611d9e611b30565b5b611da98254611aff565b611db4828285611cf0565b600060209050601f831160018114611de75760008415611dd5578287015190505b611ddf8582611d61565b865550611e47565b601f198416611df586611bd1565b60005b82811015611e1d57848901518255600182019150602085019450602081019050611df8565b86831015611e3a5784890151611e36601f891682611d43565b8355505b6001600288020188555050505b505050505050565b6000611e5a82611432565b91507fffffffffffffffffffffffffffffffffffffffffffffffffffffffffffffffff8203611e8c57611e8b61199a565b5b600182019050919050565b600082825260208201905092915050565b6000819050919050565b611ebb816114c8565b82525050565b6000611ecd8383611eb2565b60208301905092915050565b6000611ee860208401846114f1565b905092915050565b6000602082019050919050565b6000611f098385611e97565b9350611f1482611ea8565b8060005b85811015611f4d57611f2a8284611ed9565b611f348882611ec1565b9750611f3f83611ef0565b925050600181019050611f18565b5085925050509392505050565b600080fd5b82818337505050565b6000611f7483856116a1565b93507f07ffffffffffffffffffffffffffffffffffffffffffffffffffffffffffffff831115611fa757611fa6611f5a565b5b602083029250611fb8838584611f5f565b82840190509392505050565b600082825260208201905092915050565b6000819050919050565b600082825260208201905092915050565b82818337600083830152505050565b600061200b8385611fdf565b9350612018838584611ff0565b612021836115f2565b840190509392505050565b6000612039848484611fff565b90509392505050565b600080fd5b600080fd5b600080fd5b6000808335600160200384360303811261206e5761206d61204c565b5b83810192508235915060208301925067ffffffffffffffff82111561209657612095612042565b5b6001820236038313156120ac576120ab612047565b5b509250929050565b6000602082019050919050565b60006120cd8385611fc4565b9350836020840285016120df84611fd5565b8060005b878110156121255784840389526120fa8284612051565b61210586828461202c565b9550612110846120b4565b935060208b019a5050506001810190506120e3565b50829750879450505050509392505050565b6000606082019050818103600083015261215281888a611efd565b90508181036020830152612167818688611f68565b9050818103604083015261217c8184866120c1565b9050979650505050505050565b600061219482611432565b915061219f83611432565b92508282026121ad81611432565b915082820484148315176121c4576121c361199a565b5b5092915050565b7f4e487b7100000000000000000000000000000000000000000000000000000000600052601260045260246000fd5b600061220582611432565b915061221083611432565b9250826122205761221f6121cb565b5b828204905092915050565b600061223682611432565b915061224183611432565b92508282039050818111156122595761225861199a565b5b92915050565b60008151905061226e8161143c565b92915050565b60006020828403121561228a57612289611428565b5b60006122988482850161225f565b91505092915050565b60006040820190506122b6600083018561159d565b6122c36020830184611533565b9392505050565b60006080820190506122df6000830187611533565b6122ec6020830186611533565b6122f96040830185611533565b612306606083018461159d565b9594505050505056fea264697066735822122080f3fff8308ed190d3f9cdb7897ca0f0a6afc123c4788cc1891d0128354fa25a64736f6c634300081c0033",
  "linkReferences": {},
  "deployedLinkReferences": {}
}