{
  "_format": "hh-sol-artifact-1",
  "contractName": "SchoolManagement",
  "sourceName": "contracts/SchoolManagement.sol",
  "abi": [
    {
      "inputs": [],
      "name": "INVALID_ID",
      "type": "error"
    },
    {
      "inputs": [],
      "name": "INVALID_SENDER",
      "type": "error"
    },
    {
      "inputs": [],
      "name": "STUDENT_NOT_FOUND",
      "type": "error"
    },
    {
      "inputs": [
        {
          "internalType": "address",
          "name": "_wallet",
          "type": "address"
        }
      ],
      "name": "delete_student",
      "outputs": [],
      "stateMutability": "nonpayable",
      "type": "function"
    },
    {
      "inputs": [],
      "name": "get_all_students",
      "outputs": [
        {
          "components": [
            {
              "internalType": "uint256",
              "name": "id",
              "type": "uint256"
            },
            {
              "internalType": "string",
              "name": "name",
              "type": "string"
            },
            {
              "internalType": "string",
              "name": "course",
              "type": "string"
            },
            {
              "internalType": "uint256",
              "name": "age",
              "type": "uint256"
            },
            {
              "internalType": "enum SchoolManagement.Status",
              "name": "status",
              "type": "uint8"
            },
            {
              "internalType": "address",
              "name": "wallet",
              "type": "address"
            }
          ],
          "internalType": "struct SchoolManagement.StudentDetails[]",
          "name": "",
          "type": "tuple[]"
        }
      ],
      "stateMutability": "view",
      "type": "function"
    },
    {
      "inputs": [
        {
          "internalType": "address",
          "name": "_wallet",
          "type": "address"
        }
      ],
      "name": "get_student_by_id",
      "outputs": [
        {
          "components": [
            {
              "internalType": "uint256",
              "name": "id",
              "type": "uint256"
            },
            {
              "internalType": "string",
              "name": "name",
              "type": "string"
            },
            {
              "internalType": "string",
              "name": "course",
              "type": "string"
            },
            {
              "internalType": "uint256",
              "name": "age",
              "type": "uint256"
            },
            {
              "internalType": "enum SchoolManagement.Status",
              "name": "status",
              "type": "uint8"
            },
            {
              "internalType": "address",
              "name": "wallet",
              "type": "address"
            }
          ],
          "internalType": "struct SchoolManagement.StudentDetails",
          "name": "",
          "type": "tuple"
        }
      ],
      "stateMutability": "view",
      "type": "function"
    },
    {
      "inputs": [
        {
          "internalType": "string",
          "name": "_name",
          "type": "string"
        },
        {
          "internalType": "string",
          "name": "_course",
          "type": "string"
        },
        {
          "internalType": "uint256",
          "name": "_age",
          "type": "uint256"
        },
        {
          "internalType": "address",
          "name": "_wallet",
          "type": "address"
        }
      ],
      "name": "register_student",
      "outputs": [],
      "stateMutability": "nonpayable",
      "type": "function"
    },
    {
      "inputs": [
        {
          "internalType": "uint256",
          "name": "",
          "type": "uint256"
        }
      ],
      "name": "students",
      "outputs": [
        {
          "internalType": "uint256",
          "name": "id",
          "type": "uint256"
        },
        {
          "internalType": "string",
          "name": "name",
          "type": "string"
        },
        {
          "internalType": "string",
          "name": "course",
          "type": "string"
        },
        {
          "internalType": "uint256",
          "name": "age",
          "type": "uint256"
        },
        {
          "internalType": "enum SchoolManagement.Status",
          "name": "status",
          "type": "uint8"
        },
        {
          "internalType": "address",
          "name": "wallet",
          "type": "address"
        }
      ],
      "stateMutability": "view",
      "type": "function"
    },
    {
      "inputs": [
        {
          "internalType": "address",
          "name": "_wallet",
          "type": "address"
        },
        {
          "internalType": "string",
          "name": "_new_name",
          "type": "string"
        }
      ],
      "name": "update_student",
      "outputs": [],
      "stateMutability": "nonpayable",
      "type": "function"
    },
    {
      "inputs": [
        {
          "internalType": "address",
          "name": "_wallet",
          "type": "address"
        },
        {
          "internalType": "uint256",
          "name": "student_id",
          "type": "uint256"
        },
        {
          "internalType": "enum SchoolManagement.Status",
          "name": "_new_status",
          "type": "uint8"
        }
      ],
      "name": "update_students_status",
      "outputs": [],
      "stateMutability": "nonpayable",
      "type": "function"
    }
  ],
  "bytecode": "0x6080604052348015600f57600080fd5b50611f128061001f6000396000f3fe608060405234801561001057600080fd5b506004361061007d5760003560e01c8063ae997f9c1161005b578063ae997f9c146100f1578063b6393da214610121578063f87324821461013d578063ffc92fcc146101595761007d565b806306ead22e146100825780633ab9a9ec146100b757806368be63cd146100d5575b600080fd5b61009c6004803603810190610097919061120e565b610175565b6040516100ae96959493929190611392565b60405180910390f35b6100bf6102fe565b6040516100cc91906115ca565b60405180910390f35b6100ef60048036038101906100ea919061174d565b610526565b005b61010b600480360381019061010691906117a9565b6105f4565b6040516101189190611866565b60405180910390f35b61013b600480360381019061013691906117a9565b610aab565b005b610157600480360381019061015291906118ad565b610d4a565b005b610173600480360381019061016e9190611900565b610eb2565b005b6001818154811061018557600080fd5b90600052602060002090600502016000915090508060000154908060010180546101ae906119ce565b80601f01602080910402602001604051908101604052809291908181526020018280546101da906119ce565b80156102275780601f106101fc57610100808354040283529160200191610227565b820191906000526020600020905b81548152906001019060200180831161020a57829003601f168201915b50505050509080600201805461023c906119ce565b80601f0160208091040260200160405190810160405280929190818152602001828054610268906119ce565b80156102b55780601f1061028a576101008083540402835291602001916102b5565b820191906000526020600020905b81548152906001019060200180831161029857829003601f168201915b5050505050908060030154908060040160009054906101000a900460ff16908060040160019054906101000a900473ffffffffffffffffffffffffffffffffffffffff16905086565b60606001805480602002602001604051908101604052809291908181526020016000905b8282101561051d57838290600052602060002090600502016040518060c00160405290816000820154815260200160018201805461035f906119ce565b80601f016020809104026020016040519081016040528092919081815260200182805461038b906119ce565b80156103d85780601f106103ad576101008083540402835291602001916103d8565b820191906000526020600020905b8154815290600101906020018083116103bb57829003601f168201915b505050505081526020016002820180546103f1906119ce565b80601f016020809104026020016040519081016040528092919081815260200182805461041d906119ce565b801561046a5780601f1061043f5761010080835404028352916020019161046a565b820191906000526020600020905b81548152906001019060200180831161044d57829003601f168201915b50505050508152602001600382015481526020016004820160009054906101000a900460ff1660028111156104a2576104a16112da565b5b60028111156104b4576104b36112da565b5b81526020016004820160019054906101000a900473ffffffffffffffffffffffffffffffffffffffff1673ffffffffffffffffffffffffffffffffffffffff1673ffffffffffffffffffffffffffffffffffffffff168152505081526020019060010190610322565b50505050905090565b60005b6001805490508110156105ef578273ffffffffffffffffffffffffffffffffffffffff1660018281548110610561576105606119ff565b5b906000526020600020906005020160040160019054906101000a900473ffffffffffffffffffffffffffffffffffffffff1673ffffffffffffffffffffffffffffffffffffffff16036105e25781600182815481106105c3576105c26119ff565b5b906000526020600020906005020160010190816105e09190611bda565b505b8080600101915050610529565b505050565b6105fc611109565b60005b60018054905081101561088f578273ffffffffffffffffffffffffffffffffffffffff1660018281548110610637576106366119ff565b5b906000526020600020906005020160040160019054906101000a900473ffffffffffffffffffffffffffffffffffffffff1673ffffffffffffffffffffffffffffffffffffffff16036108825760018181548110610698576106976119ff565b5b90600052602060002090600502016040518060c0016040529081600082015481526020016001820180546106cb906119ce565b80601f01602080910402602001604051908101604052809291908181526020018280546106f7906119ce565b80156107445780601f1061071957610100808354040283529160200191610744565b820191906000526020600020905b81548152906001019060200180831161072757829003601f168201915b5050505050815260200160028201805461075d906119ce565b80601f0160208091040260200160405190810160405280929190818152602001828054610789906119ce565b80156107d65780601f106107ab576101008083540402835291602001916107d6565b820191906000526020600020905b8154815290600101906020018083116107b957829003601f168201915b50505050508152602001600382015481526020016004820160009054906101000a900460ff16600281111561080e5761080d6112da565b5b60028111156108205761081f6112da565b5b81526020016004820160019054906101000a900473ffffffffffffffffffffffffffffffffffffffff1673ffffffffffffffffffffffffffffffffffffffff1673ffffffffffffffffffffffffffffffffffffffff1681525050915050610aa6565b80806001019150506105ff565b50600260008373ffffffffffffffffffffffffffffffffffffffff1673ffffffffffffffffffffffffffffffffffffffff1681526020019081526020016000206040518060c0016040529081600082015481526020016001820180546108f4906119ce565b80601f0160208091040260200160405190810160405280929190818152602001828054610920906119ce565b801561096d5780601f106109425761010080835404028352916020019161096d565b820191906000526020600020905b81548152906001019060200180831161095057829003601f168201915b50505050508152602001600282018054610986906119ce565b80601f01602080910402602001604051908101604052809291908181526020018280546109b2906119ce565b80156109ff5780601f106109d4576101008083540402835291602001916109ff565b820191906000526020600020905b8154815290600101906020018083116109e257829003601f168201915b50505050508152602001600382015481526020016004820160009054906101000a900460ff166002811115610a3757610a366112da565b5b6002811115610a4957610a486112da565b5b81526020016004820160019054906101000a900473ffffffffffffffffffffffffffffffffffffffff1673ffffffffffffffffffffffffffffffffffffffff1673ffffffffffffffffffffffffffffffffffffffff168152505090505b919050565b60005b600180549050811015610d14578173ffffffffffffffffffffffffffffffffffffffff1660018281548110610ae657610ae56119ff565b5b906000526020600020906005020160040160019054906101000a900473ffffffffffffffffffffffffffffffffffffffff1673ffffffffffffffffffffffffffffffffffffffff1603610d07576001808080549050610b459190611cdb565b81548110610b5657610b556119ff565b5b906000526020600020906005020160018281548110610b7857610b776119ff565b5b90600052602060002090600502016000820154816000015560018201816001019081610ba49190611d25565b5060028201816002019081610bb99190611d25565b50600382015481600301556004820160009054906101000a900460ff168160040160006101000a81548160ff02191690836002811115610bfc57610bfb6112da565b5b02179055506004820160019054906101000a900473ffffffffffffffffffffffffffffffffffffffff168160040160016101000a81548173ffffffffffffffffffffffffffffffffffffffff021916908373ffffffffffffffffffffffffffffffffffffffff1602179055509050506001805480610c7d57610c7c611e0d565b5b6001900381819060005260206000209060050201600080820160009055600182016000610caa9190611167565b600282016000610cba9190611167565b60038201600090556004820160006101000a81549060ff02191690556004820160016101000a81549073ffffffffffffffffffffffffffffffffffffffff02191690555050905550610d47565b8080600101915050610aae565b506040517faca0832a00000000000000000000000000000000000000000000000000000000815260040160405180910390fd5b50565b600180549050821115610d92576040517f08c379a0000000000000000000000000000000000000000000000000000000008152600401610d8990611e88565b60405180910390fd5b60005b600180549050811015610e7a578373ffffffffffffffffffffffffffffffffffffffff1660018281548110610dcd57610dcc6119ff565b5b906000526020600020906005020160040160019054906101000a900473ffffffffffffffffffffffffffffffffffffffff1673ffffffffffffffffffffffffffffffffffffffff1603610e6d578160018281548110610e2f57610e2e6119ff565b5b906000526020600020906005020160040160006101000a81548160ff02191690836002811115610e6257610e616112da565b5b021790555050610ead565b8080600101915050610d95565b506040517f5a9e653400000000000000000000000000000000000000000000000000000000815260040160405180910390fd5b505050565b6001600054610ec19190611ea8565b60008190555060006040518060c00160405280600054815260200186815260200185815260200184815260200160006002811115610f0257610f016112da565b5b81526020018373ffffffffffffffffffffffffffffffffffffffff1681525090506001819080600181540180825580915050600190039060005260206000209060050201600090919091909150600082015181600001556020820151816001019081610f6e9190611bda565b506040820151816002019081610f849190611bda565b506060820151816003015560808201518160040160006101000a81548160ff02191690836002811115610fba57610fb96112da565b5b021790555060a08201518160040160016101000a81548173ffffffffffffffffffffffffffffffffffffffff021916908373ffffffffffffffffffffffffffffffffffffffff160217905550505080600260008473ffffffffffffffffffffffffffffffffffffffff1673ffffffffffffffffffffffffffffffffffffffff1681526020019081526020016000206000820151816000015560208201518160010190816110679190611bda565b50604082015181600201908161107d9190611bda565b506060820151816003015560808201518160040160006101000a81548160ff021916908360028111156110b3576110b26112da565b5b021790555060a08201518160040160016101000a81548173ffffffffffffffffffffffffffffffffffffffff021916908373ffffffffffffffffffffffffffffffffffffffff1602179055509050505050505050565b6040518060c001604052806000815260200160608152602001606081526020016000815260200160006002811115611144576111436112da565b5b8152602001600073ffffffffffffffffffffffffffffffffffffffff1681525090565b508054611173906119ce565b6000825580601f1061118557506111a4565b601f0160209004906000526020600020908101906111a391906111a7565b5b50565b5b808211156111c05760008160009055506001016111a8565b5090565b6000604051905090565b600080fd5b600080fd5b6000819050919050565b6111eb816111d8565b81146111f657600080fd5b50565b600081359050611208816111e2565b92915050565b600060208284031215611224576112236111ce565b5b6000611232848285016111f9565b91505092915050565b611244816111d8565b82525050565b600081519050919050565b600082825260208201905092915050565b60005b83811015611284578082015181840152602081019050611269565b60008484015250505050565b6000601f19601f8301169050919050565b60006112ac8261124a565b6112b68185611255565b93506112c6818560208601611266565b6112cf81611290565b840191505092915050565b7f4e487b7100000000000000000000000000000000000000000000000000000000600052602160045260246000fd5b6003811061131a576113196112da565b5b50565b600081905061132b82611309565b919050565b600061133b8261131d565b9050919050565b61134b81611330565b82525050565b600073ffffffffffffffffffffffffffffffffffffffff82169050919050565b600061137c82611351565b9050919050565b61138c81611371565b82525050565b600060c0820190506113a7600083018961123b565b81810360208301526113b981886112a1565b905081810360408301526113cd81876112a1565b90506113dc606083018661123b565b6113e96080830185611342565b6113f660a0830184611383565b979650505050505050565b600081519050919050565b600082825260208201905092915050565b6000819050602082019050919050565b611436816111d8565b82525050565b600082825260208201905092915050565b60006114588261124a565b611462818561143c565b9350611472818560208601611266565b61147b81611290565b840191505092915050565b61148f81611330565b82525050565b61149e81611371565b82525050565b600060c0830160008301516114bc600086018261142d565b50602083015184820360208601526114d4828261144d565b915050604083015184820360408601526114ee828261144d565b9150506060830151611503606086018261142d565b5060808301516115166080860182611486565b5060a083015161152960a0860182611495565b508091505092915050565b600061154083836114a4565b905092915050565b6000602082019050919050565b600061156082611401565b61156a818561140c565b93508360208202850161157c8561141d565b8060005b858110156115b857848403895281516115998582611534565b94506115a483611548565b925060208a01995050600181019050611580565b50829750879550505050505092915050565b600060208201905081810360008301526115e48184611555565b905092915050565b6115f581611371565b811461160057600080fd5b50565b600081359050611612816115ec565b92915050565b600080fd5b600080fd5b7f4e487b7100000000000000000000000000000000000000000000000000000000600052604160045260246000fd5b61165a82611290565b810181811067ffffffffffffffff8211171561167957611678611622565b5b80604052505050565b600061168c6111c4565b90506116988282611651565b919050565b600067ffffffffffffffff8211156116b8576116b7611622565b5b6116c182611290565b9050602081019050919050565b82818337600083830152505050565b60006116f06116eb8461169d565b611682565b90508281526020810184848401111561170c5761170b61161d565b5b6117178482856116ce565b509392505050565b600082601f83011261173457611733611618565b5b81356117448482602086016116dd565b91505092915050565b60008060408385031215611764576117636111ce565b5b600061177285828601611603565b925050602083013567ffffffffffffffff811115611793576117926111d3565b5b61179f8582860161171f565b9150509250929050565b6000602082840312156117bf576117be6111ce565b5b60006117cd84828501611603565b91505092915050565b600060c0830160008301516117ee600086018261142d565b5060208301518482036020860152611806828261144d565b91505060408301518482036040860152611820828261144d565b9150506060830151611835606086018261142d565b5060808301516118486080860182611486565b5060a083015161185b60a0860182611495565b508091505092915050565b6000602082019050818103600083015261188081846117d6565b905092915050565b6003811061189557600080fd5b50565b6000813590506118a781611888565b92915050565b6000806000606084860312156118c6576118c56111ce565b5b60006118d486828701611603565b93505060206118e5868287016111f9565b92505060406118f686828701611898565b9150509250925092565b6000806000806080858703121561191a576119196111ce565b5b600085013567ffffffffffffffff811115611938576119376111d3565b5b6119448782880161171f565b945050602085013567ffffffffffffffff811115611965576119646111d3565b5b6119718782880161171f565b9350506040611982878288016111f9565b925050606061199387828801611603565b91505092959194509250565b7f4e487b7100000000000000000000000000000000000000000000000000000000600052602260045260246000fd5b600060028204905060018216806119e657607f821691505b6020821081036119f9576119f861199f565b5b50919050565b7f4e487b7100000000000000000000000000000000000000000000000000000000600052603260045260246000fd5b60008190508160005260206000209050919050565b60006020601f8301049050919050565b600082821b905092915050565b600060088302611a907fffffffffffffffffffffffffffffffffffffffffffffffffffffffffffffffff82611a53565b611a9a8683611a53565b95508019841693508086168417925050509392505050565b6000819050919050565b6000611ad7611ad2611acd846111d8565b611ab2565b6111d8565b9050919050565b6000819050919050565b611af183611abc565b611b05611afd82611ade565b848454611a60565b825550505050565b600090565b611b1a611b0d565b611b25818484611ae8565b505050565b5b81811015611b4957611b3e600082611b12565b600181019050611b2b565b5050565b601f821115611b8e57611b5f81611a2e565b611b6884611a43565b81016020851015611b77578190505b611b8b611b8385611a43565b830182611b2a565b50505b505050565b600082821c905092915050565b6000611bb160001984600802611b93565b1980831691505092915050565b6000611bca8383611ba0565b9150826002028217905092915050565b611be38261124a565b67ffffffffffffffff811115611bfc57611bfb611622565b5b611c0682546119ce565b611c11828285611b4d565b600060209050601f831160018114611c445760008415611c32578287015190505b611c3c8582611bbe565b865550611ca4565b601f198416611c5286611a2e565b60005b82811015611c7a57848901518255600182019150602085019450602081019050611c55565b86831015611c975784890151611c93601f891682611ba0565b8355505b6001600288020188555050505b505050505050565b7f4e487b7100000000000000000000000000000000000000000000000000000000600052601160045260246000fd5b6000611ce6826111d8565b9150611cf1836111d8565b9250828203905081811115611d0957611d08611cac565b5b92915050565b600081549050611d1e816119ce565b9050919050565b818103611d33575050611e0b565b611d3c82611d0f565b67ffffffffffffffff811115611d5557611d54611622565b5b611d5f82546119ce565b611d6a828285611b4d565b6000601f831160018114611d995760008415611d87578287015490505b611d918582611bbe565b865550611e04565b601f198416611da787611a2e565b9650611db286611a2e565b60005b82811015611dda57848901548255600182019150600185019450602081019050611db5565b86831015611df75784890154611df3601f891682611ba0565b8355505b6001600288020188555050505b5050505050505b565b7f4e487b7100000000000000000000000000000000000000000000000000000000600052603160045260246000fd5b7f696e76616c696420696400000000000000000000000000000000000000000000600082015250565b6000611e72600a83611255565b9150611e7d82611e3c565b602082019050919050565b60006020820190508181036000830152611ea181611e65565b9050919050565b6000611eb3826111d8565b9150611ebe836111d8565b9250828201905080821115611ed657611ed5611cac565b5b9291505056fea2646970667358221220bbc6d5af6aac841708984ce612f6056b176b2ebd1de03710901cfa906658f90164736f6c634300081e0033",
  "linkReferences": {},
  "deployedLinkReferences": {}
}