{
  "_format": "hh-sol-artifact-1",
  "contractName": "Lottery",
  "sourceName": "contracts/Lottery.sol",
  "abi": [
    {
      "inputs": [],
      "stateMutability": "nonpayable",
      "type": "constructor"
    },
    {
      "inputs": [],
      "name": "AlreadyEntered",
      "type": "error"
    },
    {
      "inputs": [],
      "name": "InvalidEntryFee",
      "type": "error"
    },
    {
      "inputs": [],
      "name": "LotteryFull",
      "type": "error"
    },
    {
      "inputs": [],
      "name": "NotEnoughPlayers",
      "type": "error"
    },
    {
      "inputs": [
        {
          "internalType": "address",
          "name": "owner",
          "type": "address"
        }
      ],
      "name": "OwnableInvalidOwner",
      "type": "error"
    },
    {
      "inputs": [
        {
          "internalType": "address",
          "name": "account",
          "type": "address"
        }
      ],
      "name": "OwnableUnauthorizedAccount",
      "type": "error"
    },
    {
      "inputs": [],
      "name": "ReentrancyGuardReentrantCall",
      "type": "error"
    },
    {
      "inputs": [],
      "name": "TransferFailed",
      "type": "error"
    },
    {
      "anonymous": false,
      "inputs": [
        {
          "indexed": true,
          "internalType": "uint256",
          "name": "newLotteryId",
          "type": "uint256"
        }
      ],
      "name": "LotteryReset",
      "type": "event"
    },
    {
      "anonymous": false,
      "inputs": [
        {
          "indexed": true,
          "internalType": "address",
          "name": "previousOwner",
          "type": "address"
        },
        {
          "indexed": true,
          "internalType": "address",
          "name": "newOwner",
          "type": "address"
        }
      ],
      "name": "OwnershipTransferred",
      "type": "event"
    },
    {
      "anonymous": false,
      "inputs": [
        {
          "indexed": true,
          "internalType": "address",
          "name": "player",
          "type": "address"
        },
        {
          "indexed": true,
          "internalType": "uint256",
          "name": "lotteryId",
          "type": "uint256"
        }
      ],
      "name": "PlayerJoined",
      "type": "event"
    },
    {
      "anonymous": false,
      "inputs": [
        {
          "indexed": true,
          "internalType": "address",
          "name": "winner",
          "type": "address"
        },
        {
          "indexed": false,
          "internalType": "uint256",
          "name": "prizeAmount",
          "type": "uint256"
        },
        {
          "indexed": true,
          "internalType": "uint256",
          "name": "lotteryId",
          "type": "uint256"
        }
      ],
      "name": "WinnerSelected",
      "type": "event"
    },
    {
      "inputs": [],
      "name": "ENTRY_FEE",
      "outputs": [
        {
          "internalType": "uint256",
          "name": "",
          "type": "uint256"
        }
      ],
      "stateMutability": "view",
      "type": "function"
    },
    {
      "inputs": [],
      "name": "MAX_PLAYERS",
      "outputs": [
        {
          "internalType": "uint256",
          "name": "",
          "type": "uint256"
        }
      ],
      "stateMutability": "view",
      "type": "function"
    },
    {
      "inputs": [],
      "name": "enterLottery",
      "outputs": [],
      "stateMutability": "payable",
      "type": "function"
    },
    {
      "inputs": [],
      "name": "getCurrentPrizePool",
      "outputs": [
        {
          "internalType": "uint256",
          "name": "",
          "type": "uint256"
        }
      ],
      "stateMutability": "view",
      "type": "function"
    },
    {
      "inputs": [],
      "name": "getLotteryInfo",
      "outputs": [
        {
          "internalType": "uint256",
          "name": "currentLotteryId",
          "type": "uint256"
        },
        {
          "internalType": "uint256",
          "name": "playerCount",
          "type": "uint256"
        },
        {
          "internalType": "uint256",
          "name": "prizePool",
          "type": "uint256"
        },
        {
          "internalType": "address[]",
          "name": "currentPlayers",
          "type": "address[]"
        }
      ],
      "stateMutability": "view",
      "type": "function"
    },
    {
      "inputs": [],
      "name": "getPlayerCount",
      "outputs": [
        {
          "internalType": "uint256",
          "name": "",
          "type": "uint256"
        }
      ],
      "stateMutability": "view",
      "type": "function"
    },
    {
      "inputs": [],
      "name": "getPlayers",
      "outputs": [
        {
          "internalType": "address[]",
          "name": "",
          "type": "address[]"
        }
      ],
      "stateMutability": "view",
      "type": "function"
    },
    {
      "inputs": [
        {
          "internalType": "address",
          "name": "",
          "type": "address"
        }
      ],
      "name": "hasEntered",
      "outputs": [
        {
          "internalType": "bool",
          "name": "",
          "type": "bool"
        }
      ],
      "stateMutability": "view",
      "type": "function"
    },
    {
      "inputs": [],
      "name": "lastPrizeAmount",
      "outputs": [
        {
          "internalType": "uint256",
          "name": "",
          "type": "uint256"
        }
      ],
      "stateMutability": "view",
      "type": "function"
    },
    {
      "inputs": [],
      "name": "lastWinner",
      "outputs": [
        {
          "internalType": "address",
          "name": "",
          "type": "address"
        }
      ],
      "stateMutability": "view",
      "type": "function"
    },
    {
      "inputs": [],
      "name": "lotteryId",
      "outputs": [
        {
          "internalType": "uint256",
          "name": "",
          "type": "uint256"
        }
      ],
      "stateMutability": "view",
      "type": "function"
    },
    {
      "inputs": [],
      "name": "owner",
      "outputs": [
        {
          "internalType": "address",
          "name": "",
          "type": "address"
        }
      ],
      "stateMutability": "view",
      "type": "function"
    },
    {
      "inputs": [
        {
          "internalType": "uint256",
          "name": "",
          "type": "uint256"
        }
      ],
      "name": "players",
      "outputs": [
        {
          "internalType": "address",
          "name": "",
          "type": "address"
        }
      ],
      "stateMutability": "view",
      "type": "function"
    },
    {
      "inputs": [],
      "name": "renounceOwnership",
      "outputs": [],
      "stateMutability": "nonpayable",
      "type": "function"
    },
    {
      "inputs": [
        {
          "internalType": "address",
          "name": "newOwner",
          "type": "address"
        }
      ],
      "name": "transferOwnership",
      "outputs": [],
      "stateMutability": "nonpayable",
      "type": "function"
    }
  ],
  "bytecode": "0x6080604052348015600f57600080fd5b5060016000553380603a57604051631e4fbdf760e01b81526000600482015260240160405180910390fd5b6041816046565b506098565b600180546001600160a01b038381166001600160a01b0319831681179093556040519116919082907f8be0079c531659141344cd1fd0a4f28419497f9722a3daafe3b4186f6b6457e090600090a35050565b610a05806100a76000396000f3fe6080604052600436106100e85760003560e01c806399ea52591161008a578063f2fde38b11610059578063f2fde38b14610245578063f6d361cc14610265578063f71d96cb14610280578063fe188184146102a057600080fd5b806399ea5259146101fc578063c1af578514610212578063c2e522061461021a578063e580f47b1461022f57600080fd5b806355e93ede116100c657806355e93ede1461017e578063715018a6146101915780638b5b9ccc146101a85780638da5cb5b146101ca57600080fd5b8063101c5ce9146100ed57806324d70dea1461011b5780634411b3eb1461015b575b600080fd5b3480156100f957600080fd5b506101026102c0565b60405161011294939291906108c6565b60405180910390f35b34801561012757600080fd5b5061014b6101363660046108f5565b60036020526000908152604090205460ff1681565b6040519015158152602001610112565b34801561016757600080fd5b50610170600a81565b604051908152602001610112565b34801561018a57600080fd5b5047610170565b34801561019d57600080fd5b506101a661033d565b005b3480156101b457600080fd5b506101bd610351565b6040516101129190610925565b3480156101d657600080fd5b506001546001600160a01b03165b6040516001600160a01b039091168152602001610112565b34801561020857600080fd5b5061017060065481565b6101a66103b3565b34801561022657600080fd5b50600254610170565b34801561023b57600080fd5b5061017060045481565b34801561025157600080fd5b506101a66102603660046108f5565b6104d8565b34801561027157600080fd5b50610170662386f26fc1000081565b34801561028c57600080fd5b506101e461029b366004610938565b61051b565b3480156102ac57600080fd5b506005546101e4906001600160a01b031681565b600080600060606004546002805490504760028080548060200260200160405190810160405280929190818152602001828054801561032857602002820191906000526020600020905b81546001600160a01b0316815260019091019060200180831161030a575b50505050509050935093509350935090919293565b610345610545565b61034f6000610572565b565b606060028054806020026020016040519081016040528092919081815260200182805480156103a957602002820191906000526020600020905b81546001600160a01b0316815260019091019060200180831161038b575b5050505050905090565b662386f26fc1000034146103da57604051636fe6a4c960e01b815260040160405180910390fd5b3360009081526003602052604090205460ff161561040b57604051637863668360e01b815260040160405180910390fd5b600254600a1161042e576040516305353ce560e31b815260040160405180910390fd5b6104366105c4565b6002805460018181019092557f405787fa12a823e0f2b7631cc41b3ba8828b3321ca811111fa75cd3aa3bb5ace0180546001600160a01b03191633908117909155600081815260036020526040808220805460ff191690941790935560045492517f3330a6773675f31f62070870f40379f8c6d42e3761410011a4dfc42b18043d2f9190a3600254600919016104ce576104ce6105ee565b61034f6001600055565b6104e0610545565b6001600160a01b03811661050f57604051631e4fbdf760e01b8152600060048201526024015b60405180910390fd5b61051881610572565b50565b6002818154811061052b57600080fd5b6000918252602090912001546001600160a01b0316905081565b6001546001600160a01b0316331461034f5760405163118cdaa760e01b8152336004820152602401610506565b600180546001600160a01b038381166001600160a01b0319831681179093556040519116919082907f8be0079c531659141344cd1fd0a4f28419497f9722a3daafe3b4186f6b6457e090600090a35050565b6002600054036105e757604051633ee5aeb560e01b815260040160405180910390fd5b6002600055565b600254600a146106115760405163f770074360e01b815260040160405180910390fd5b6000600a61061d610734565b6106279190610951565b905060006002828154811061063e5761063e610973565b600091825260209091200154600580546001600160a01b0319166001600160a01b039092169182179055476006819055600454604051929350909183907f866efae43947560fe9d0de9013bc323d5718730d5c1543261b48a7bcb0717b93906106aa9085815260200190565b60405180910390a36000826001600160a01b03168260405160006040518083038185875af1925050503d80600081146106ff576040519150601f19603f3d011682016040523d82523d6000602084013e610704565b606091505b5050905080610726576040516312171d8360e31b815260040160405180910390fd5b61072e610796565b50505050565b6002546040516000916107789142914491339060200193845260208401929092526040830152606090811b6bffffffffffffffffffffffff19169082015260740190565b6040516020818303038152906040528051906020012060001c905090565b6002545b80156107ff57806107aa8161099f565b915050600060036000600284815481106107c6576107c6610973565b6000918252602080832091909101546001600160a01b031683528201929092526040019020805460ff191691151591909117905561079a565b61080b6002600061084f565b6004805490600061081b836109b6565b90915550506004546040517f6564d21026f38ac4bc4ef082b01864f3ae6869e139a373fdf664a27a6c6dbebb90600090a250565b508054600082559060005260206000209081019061051891905b8082111561087d5760008155600101610869565b5090565b600081518084526020840193506020830160005b828110156108bc5781516001600160a01b0316865260209586019590910190600101610895565b5093949350505050565b8481528360208201528260408201526080606082015260006108eb6080830184610881565b9695505050505050565b60006020828403121561090757600080fd5b81356001600160a01b038116811461091e57600080fd5b9392505050565b60208152600061091e6020830184610881565b60006020828403121561094a57600080fd5b5035919050565b60008261096e57634e487b7160e01b600052601260045260246000fd5b500690565b634e487b7160e01b600052603260045260246000fd5b634e487b7160e01b600052601160045260246000fd5b6000816109ae576109ae610989565b506000190190565b6000600182016109c8576109c8610989565b506001019056fea26469706673582212206df3c9f22699cac0a389620e5e05640464862592864e432656115c0f7ee82f5164736f6c634300081c0033",
  "linkReferences": {},
  "deployedLinkReferences": {}
}