{
  "_format": "hh-sol-artifact-1",
  "contractName": "DigitalKeyCard",
  "sourceName": "contracts/DigitalKeyCard.sol",
  "abi": [
    {
      "inputs": [],
      "name": "STOP",
      "type": "error"
    },
    {
      "inputs": [
        {
          "internalType": "address",
          "name": "_employeeAddress",
          "type": "address"
        },
        {
          "internalType": "string",
          "name": "_name",
          "type": "string"
        },
        {
          "internalType": "enum DigitalKeyCard.EmployeeRole",
          "name": "_role",
          "type": "uint8"
        }
      ],
      "name": "addEmployee",
      "outputs": [],
      "stateMutability": "nonpayable",
      "type": "function"
    },
    {
      "inputs": [
        {
          "internalType": "uint256",
          "name": "",
          "type": "uint256"
        }
      ],
      "name": "allEmployees",
      "outputs": [
        {
          "internalType": "address",
          "name": "employeeAddress",
          "type": "address"
        },
        {
          "internalType": "string",
          "name": "name",
          "type": "string"
        },
        {
          "internalType": "enum DigitalKeyCard.EmployeeRole",
          "name": "role",
          "type": "uint8"
        },
        {
          "internalType": "bool",
          "name": "isEmployed",
          "type": "bool"
        }
      ],
      "stateMutability": "view",
      "type": "function"
    },
    {
      "inputs": [
        {
          "internalType": "address",
          "name": "_employeeAddress",
          "type": "address"
        }
      ],
      "name": "canAccessGarage",
      "outputs": [
        {
          "internalType": "bool",
          "name": "",
          "type": "bool"
        }
      ],
      "stateMutability": "view",
      "type": "function"
    },
    {
      "inputs": [
        {
          "internalType": "address",
          "name": "",
          "type": "address"
        }
      ],
      "name": "employees",
      "outputs": [
        {
          "internalType": "address",
          "name": "employeeAddress",
          "type": "address"
        },
        {
          "internalType": "string",
          "name": "name",
          "type": "string"
        },
        {
          "internalType": "enum DigitalKeyCard.EmployeeRole",
          "name": "role",
          "type": "uint8"
        },
        {
          "internalType": "bool",
          "name": "isEmployed",
          "type": "bool"
        }
      ],
      "stateMutability": "view",
      "type": "function"
    },
    {
      "inputs": [],
      "name": "getAllEmployees",
      "outputs": [
        {
          "components": [
            {
              "internalType": "address",
              "name": "employeeAddress",
              "type": "address"
            },
            {
              "internalType": "string",
              "name": "name",
              "type": "string"
            },
            {
              "internalType": "enum DigitalKeyCard.EmployeeRole",
              "name": "role",
              "type": "uint8"
            },
            {
              "internalType": "bool",
              "name": "isEmployed",
              "type": "bool"
            }
          ],
          "internalType": "struct DigitalKeyCard.Employee[]",
          "name": "",
          "type": "tuple[]"
        }
      ],
      "stateMutability": "view",
      "type": "function"
    },
    {
      "inputs": [
        {
          "internalType": "address",
          "name": "_employeeAddress",
          "type": "address"
        }
      ],
      "name": "getEmployeeDetails",
      "outputs": [
        {
          "components": [
            {
              "internalType": "address",
              "name": "employeeAddress",
              "type": "address"
            },
            {
              "internalType": "string",
              "name": "name",
              "type": "string"
            },
            {
              "internalType": "enum DigitalKeyCard.EmployeeRole",
              "name": "role",
              "type": "uint8"
            },
            {
              "internalType": "bool",
              "name": "isEmployed",
              "type": "bool"
            }
          ],
          "internalType": "struct DigitalKeyCard.Employee",
          "name": "",
          "type": "tuple"
        }
      ],
      "stateMutability": "view",
      "type": "function"
    },
    {
      "inputs": [
        {
          "internalType": "address",
          "name": "_employeeAddress",
          "type": "address"
        },
        {
          "internalType": "string",
          "name": "_name",
          "type": "string"
        },
        {
          "internalType": "enum DigitalKeyCard.EmployeeRole",
          "name": "_role",
          "type": "uint8"
        },
        {
          "internalType": "bool",
          "name": "_isEmployed",
          "type": "bool"
        }
      ],
      "name": "updateEmployee",
      "outputs": [],
      "stateMutability": "nonpayable",
      "type": "function"
    }
  ],
  "bytecode": "0x6080604052348015600f57600080fd5b50611a428061001f6000396000f3fe608060405234801561001057600080fd5b506004361061007d5760003560e01c8063b24e34c81161005b578063b24e34c814610101578063d067894714610131578063e3366fed14610164578063fb088a28146101825761007d565b80631caafcf11461008257806335b79557146100b257806385340eb4146100ce575b600080fd5b61009c60048036038101906100979190610fb0565b61019e565b6040516100a99190611171565b60405180910390f35b6100cc60048036038101906100c79190611319565b6103c4565b005b6100e860048036038101906100e391906113d2565b6106f0565b6040516100f89493929190611476565b60405180910390f35b61011b60048036038101906101169190610fb0565b6107f2565b60405161012891906114c2565b60405180910390f35b61014b60048036038101906101469190610fb0565b610a3d565b60405161015b9493929190611476565b60405180910390f35b61016c610b2f565b6040516101799190611602565b60405180910390f35b61019c60048036038101906101979190611624565b610ccc565b005b6101a6610eec565b60008060008473ffffffffffffffffffffffffffffffffffffffff1673ffffffffffffffffffffffffffffffffffffffff16815260200190815260200160002060010180546101f4906116c2565b905011610236576040517f08c379a000000000000000000000000000000000000000000000000000000000815260040161022d9061173f565b60405180910390fd5b6000808373ffffffffffffffffffffffffffffffffffffffff1673ffffffffffffffffffffffffffffffffffffffff1681526020019081526020016000206040518060800160405290816000820160009054906101000a900473ffffffffffffffffffffffffffffffffffffffff1673ffffffffffffffffffffffffffffffffffffffff1673ffffffffffffffffffffffffffffffffffffffff1681526020016001820180546102e5906116c2565b80601f0160208091040260200160405190810160405280929190818152602001828054610311906116c2565b801561035e5780601f106103335761010080835404028352916020019161035e565b820191906000526020600020905b81548152906001019060200180831161034157829003601f168201915b505050505081526020016002820160009054906101000a900460ff16600581111561038c5761038b61107c565b5b600581111561039e5761039d61107c565b5b81526020016002820160019054906101000a900460ff1615151515815250509050919050565b60008060008673ffffffffffffffffffffffffffffffffffffffff1673ffffffffffffffffffffffffffffffffffffffff1681526020019081526020016000206001018054610412906116c2565b905011610454576040517f08c379a000000000000000000000000000000000000000000000000000000000815260040161044b9061173f565b60405180910390fd5b826000808673ffffffffffffffffffffffffffffffffffffffff1673ffffffffffffffffffffffffffffffffffffffff16815260200190815260200160002060010190816104a2919061190b565b50816000808673ffffffffffffffffffffffffffffffffffffffff1673ffffffffffffffffffffffffffffffffffffffff16815260200190815260200160002060020160006101000a81548160ff021916908360058111156105075761050661107c565b5b0217905550806000808673ffffffffffffffffffffffffffffffffffffffff1673ffffffffffffffffffffffffffffffffffffffff16815260200190815260200160002060020160016101000a81548160ff02191690831515021790555060005b6001805490508110156106e9578473ffffffffffffffffffffffffffffffffffffffff16600182815481106105a05761059f6119dd565b5b906000526020600020906003020160000160009054906101000a900473ffffffffffffffffffffffffffffffffffffffff1673ffffffffffffffffffffffffffffffffffffffff16036106dc578360018281548110610602576106016119dd565b5b9060005260206000209060030201600101908161061f919061190b565b508260018281548110610635576106346119dd565b5b906000526020600020906003020160020160006101000a81548160ff021916908360058111156106685761066761107c565b5b02179055508160018281548110610682576106816119dd565b5b906000526020600020906003020160020160016101000a81548160ff0219169083151502179055506040517f854ba99d00000000000000000000000000000000000000000000000000000000815260040160405180910390fd5b8080600101915050610568565b5050505050565b6001818154811061070057600080fd5b90600052602060002090600302016000915090508060000160009054906101000a900473ffffffffffffffffffffffffffffffffffffffff1690806001018054610749906116c2565b80601f0160208091040260200160405190810160405280929190818152602001828054610775906116c2565b80156107c25780601f10610797576101008083540402835291602001916107c2565b820191906000526020600020905b8154815290600101906020018083116107a557829003601f168201915b5050505050908060020160009054906101000a900460ff16908060020160019054906101000a900460ff16905084565b6000806000808473ffffffffffffffffffffffffffffffffffffffff1673ffffffffffffffffffffffffffffffffffffffff1681526020019081526020016000206040518060800160405290816000820160009054906101000a900473ffffffffffffffffffffffffffffffffffffffff1673ffffffffffffffffffffffffffffffffffffffff1673ffffffffffffffffffffffffffffffffffffffff1681526020016001820180546108a4906116c2565b80601f01602080910402602001604051908101604052809291908181526020018280546108d0906116c2565b801561091d5780601f106108f25761010080835404028352916020019161091d565b820191906000526020600020905b81548152906001019060200180831161090057829003601f168201915b505050505081526020016002820160009054906101000a900460ff16600581111561094b5761094a61107c565b5b600581111561095d5761095c61107c565b5b81526020016002820160019054906101000a900460ff16151515158152505090508060600151610991576000915050610a38565b600060058111156109a5576109a461107c565b5b816040015160058111156109bc576109bb61107c565b5b14806109f05750600160058111156109d7576109d661107c565b5b816040015160058111156109ee576109ed61107c565b5b145b80610a23575060026005811115610a0a57610a0961107c565b5b81604001516005811115610a2157610a2061107c565b5b145b15610a32576001915050610a38565b60009150505b919050565b60006020528060005260406000206000915090508060000160009054906101000a900473ffffffffffffffffffffffffffffffffffffffff1690806001018054610a86906116c2565b80601f0160208091040260200160405190810160405280929190818152602001828054610ab2906116c2565b8015610aff5780601f10610ad457610100808354040283529160200191610aff565b820191906000526020600020905b815481529060010190602001808311610ae257829003601f168201915b5050505050908060020160009054906101000a900460ff16908060020160019054906101000a900460ff16905084565b60606001805480602002602001604051908101604052809291908181526020016000905b82821015610cc357838290600052602060002090600302016040518060800160405290816000820160009054906101000a900473ffffffffffffffffffffffffffffffffffffffff1673ffffffffffffffffffffffffffffffffffffffff1673ffffffffffffffffffffffffffffffffffffffff168152602001600182018054610bdc906116c2565b80601f0160208091040260200160405190810160405280929190818152602001828054610c08906116c2565b8015610c555780601f10610c2a57610100808354040283529160200191610c55565b820191906000526020600020905b815481529060010190602001808311610c3857829003601f168201915b505050505081526020016002820160009054906101000a900460ff166005811115610c8357610c8261107c565b5b6005811115610c9557610c9461107c565b5b81526020016002820160019054906101000a900460ff16151515158152505081526020019060010190610b53565b50505050905090565b600060405180608001604052808573ffffffffffffffffffffffffffffffffffffffff168152602001848152602001836005811115610d0e57610d0d61107c565b5b8152602001600115158152509050806000808673ffffffffffffffffffffffffffffffffffffffff1673ffffffffffffffffffffffffffffffffffffffff16815260200190815260200160002060008201518160000160006101000a81548173ffffffffffffffffffffffffffffffffffffffff021916908373ffffffffffffffffffffffffffffffffffffffff1602179055506020820151816001019081610db7919061190b565b5060408201518160020160006101000a81548160ff02191690836005811115610de357610de261107c565b5b021790555060608201518160020160016101000a81548160ff021916908315150217905550905050600181908060018154018082558091505060019003906000526020600020906003020160009091909190915060008201518160000160006101000a81548173ffffffffffffffffffffffffffffffffffffffff021916908373ffffffffffffffffffffffffffffffffffffffff1602179055506020820151816001019081610e93919061190b565b5060408201518160020160006101000a81548160ff02191690836005811115610ebf57610ebe61107c565b5b021790555060608201518160020160016101000a81548160ff021916908315150217905550505050505050565b6040518060800160405280600073ffffffffffffffffffffffffffffffffffffffff1681526020016060815260200160006005811115610f2f57610f2e61107c565b5b81526020016000151581525090565b6000604051905090565b600080fd5b600080fd5b600073ffffffffffffffffffffffffffffffffffffffff82169050919050565b6000610f7d82610f52565b9050919050565b610f8d81610f72565b8114610f9857600080fd5b50565b600081359050610faa81610f84565b92915050565b600060208284031215610fc657610fc5610f48565b5b6000610fd484828501610f9b565b91505092915050565b610fe681610f72565b82525050565b600081519050919050565b600082825260208201905092915050565b60005b8381101561102657808201518184015260208101905061100b565b60008484015250505050565b6000601f19601f8301169050919050565b600061104e82610fec565b6110588185610ff7565b9350611068818560208601611008565b61107181611032565b840191505092915050565b7f4e487b7100000000000000000000000000000000000000000000000000000000600052602160045260246000fd5b600681106110bc576110bb61107c565b5b50565b60008190506110cd826110ab565b919050565b60006110dd826110bf565b9050919050565b6110ed816110d2565b82525050565b60008115159050919050565b611108816110f3565b82525050565b60006080830160008301516111266000860182610fdd565b506020830151848203602086015261113e8282611043565b915050604083015161115360408601826110e4565b50606083015161116660608601826110ff565b508091505092915050565b6000602082019050818103600083015261118b818461110e565b905092915050565b600080fd5b600080fd5b7f4e487b7100000000000000000000000000000000000000000000000000000000600052604160045260246000fd5b6111d582611032565b810181811067ffffffffffffffff821117156111f4576111f361119d565b5b80604052505050565b6000611207610f3e565b905061121382826111cc565b919050565b600067ffffffffffffffff8211156112335761123261119d565b5b61123c82611032565b9050602081019050919050565b82818337600083830152505050565b600061126b61126684611218565b6111fd565b90508281526020810184848401111561128757611286611198565b5b611292848285611249565b509392505050565b600082601f8301126112af576112ae611193565b5b81356112bf848260208601611258565b91505092915050565b600681106112d557600080fd5b50565b6000813590506112e7816112c8565b92915050565b6112f6816110f3565b811461130157600080fd5b50565b600081359050611313816112ed565b92915050565b6000806000806080858703121561133357611332610f48565b5b600061134187828801610f9b565b945050602085013567ffffffffffffffff81111561136257611361610f4d565b5b61136e8782880161129a565b935050604061137f878288016112d8565b925050606061139087828801611304565b91505092959194509250565b6000819050919050565b6113af8161139c565b81146113ba57600080fd5b50565b6000813590506113cc816113a6565b92915050565b6000602082840312156113e8576113e7610f48565b5b60006113f6848285016113bd565b91505092915050565b61140881610f72565b82525050565b600082825260208201905092915050565b600061142a82610fec565b611434818561140e565b9350611444818560208601611008565b61144d81611032565b840191505092915050565b611461816110d2565b82525050565b611470816110f3565b82525050565b600060808201905061148b60008301876113ff565b818103602083015261149d818661141f565b90506114ac6040830185611458565b6114b96060830184611467565b95945050505050565b60006020820190506114d76000830184611467565b92915050565b600081519050919050565b600082825260208201905092915050565b6000819050602082019050919050565b60006080830160008301516115216000860182610fdd565b50602083015184820360208601526115398282611043565b915050604083015161154e60408601826110e4565b50606083015161156160608601826110ff565b508091505092915050565b60006115788383611509565b905092915050565b6000602082019050919050565b6000611598826114dd565b6115a281856114e8565b9350836020820285016115b4856114f9565b8060005b858110156115f057848403895281516115d1858261156c565b94506115dc83611580565b925060208a019950506001810190506115b8565b50829750879550505050505092915050565b6000602082019050818103600083015261161c818461158d565b905092915050565b60008060006060848603121561163d5761163c610f48565b5b600061164b86828701610f9b565b935050602084013567ffffffffffffffff81111561166c5761166b610f4d565b5b6116788682870161129a565b9250506040611689868287016112d8565b9150509250925092565b7f4e487b7100000000000000000000000000000000000000000000000000000000600052602260045260246000fd5b600060028204905060018216806116da57607f821691505b6020821081036116ed576116ec611693565b5b50919050565b7f456d706c6f796565206e6f7420666f756e640000000000000000000000000000600082015250565b600061172960128361140e565b9150611734826116f3565b602082019050919050565b600060208201905081810360008301526117588161171c565b9050919050565b60008190508160005260206000209050919050565b60006020601f8301049050919050565b600082821b905092915050565b6000600883026117c17fffffffffffffffffffffffffffffffffffffffffffffffffffffffffffffffff82611784565b6117cb8683611784565b95508019841693508086168417925050509392505050565b6000819050919050565b60006118086118036117fe8461139c565b6117e3565b61139c565b9050919050565b6000819050919050565b611822836117ed565b61183661182e8261180f565b848454611791565b825550505050565b600090565b61184b61183e565b611856818484611819565b505050565b5b8181101561187a5761186f600082611843565b60018101905061185c565b5050565b601f8211156118bf576118908161175f565b61189984611774565b810160208510156118a8578190505b6118bc6118b485611774565b83018261185b565b50505b505050565b600082821c905092915050565b60006118e2600019846008026118c4565b1980831691505092915050565b60006118fb83836118d1565b9150826002028217905092915050565b61191482610fec565b67ffffffffffffffff81111561192d5761192c61119d565b5b61193782546116c2565b61194282828561187e565b600060209050601f8311600181146119755760008415611963578287015190505b61196d85826118ef565b8655506119d5565b601f1984166119838661175f565b60005b828110156119ab57848901518255600182019150602085019450602081019050611986565b868310156119c857848901516119c4601f8916826118d1565b8355505b6001600288020188555050505b505050505050565b7f4e487b7100000000000000000000000000000000000000000000000000000000600052603260045260246000fdfea2646970667358221220e47003d6b4b6e3f5e8b345cc85e39dd9d5d743a1665363638176aea2a691d86964736f6c634300081e0033",
  "linkReferences": {},
  "deployedLinkReferences": {}
}