{
  "_format": "hh-sol-artifact-1",
  "contractName": "SchoolManagement",
  "sourceName": "contracts/SchoolManagement.sol",
  "abi": [
    {
      "inputs": [
        {
          "internalType": "uint256",
          "name": "",
          "type": "uint256"
        }
      ],
      "name": "StudentArray",
      "outputs": [
        {
          "internalType": "uint256",
          "name": "studentId",
          "type": "uint256"
        },
        {
          "internalType": "string",
          "name": "name",
          "type": "string"
        },
        {
          "internalType": "uint256",
          "name": "age",
          "type": "uint256"
        },
        {
          "internalType": "enum SchoolManagement.Gender",
          "name": "student_gender",
          "type": "uint8"
        },
        {
          "internalType": "enum SchoolManagement.Status",
          "name": "student_status",
          "type": "uint8"
        }
      ],
      "stateMutability": "view",
      "type": "function"
    },
    {
      "inputs": [
        {
          "internalType": "uint256",
          "name": "_studentId",
          "type": "uint256"
        }
      ],
      "name": "delete_student",
      "outputs": [],
      "stateMutability": "nonpayable",
      "type": "function"
    },
    {
      "inputs": [
        {
          "internalType": "uint256",
          "name": "_studentId",
          "type": "uint256"
        },
        {
          "internalType": "string",
          "name": "_name",
          "type": "string"
        },
        {
          "internalType": "uint256",
          "name": "_age",
          "type": "uint256"
        },
        {
          "internalType": "enum SchoolManagement.Gender",
          "name": "_student_gender",
          "type": "uint8"
        },
        {
          "internalType": "enum SchoolManagement.Status",
          "name": "_student_status",
          "type": "uint8"
        }
      ],
      "name": "register_student",
      "outputs": [],
      "stateMutability": "nonpayable",
      "type": "function"
    },
    {
      "inputs": [
        {
          "internalType": "uint256",
          "name": "_studentId",
          "type": "uint256"
        },
        {
          "internalType": "enum SchoolManagement.Status",
          "name": "_new_student_status",
          "type": "uint8"
        }
      ],
      "name": "student_status",
      "outputs": [],
      "stateMutability": "nonpayable",
      "type": "function"
    },
    {
      "inputs": [
        {
          "internalType": "uint256",
          "name": "_studentId",
          "type": "uint256"
        },
        {
          "internalType": "string",
          "name": "_newname",
          "type": "string"
        },
        {
          "internalType": "uint256",
          "name": "_newage",
          "type": "uint256"
        }
      ],
      "name": "update_studentData",
      "outputs": [],
      "stateMutability": "nonpayable",
      "type": "function"
    },
    {
      "inputs": [],
      "name": "view_all_student_data",
      "outputs": [
        {
          "components": [
            {
              "internalType": "uint256",
              "name": "studentId",
              "type": "uint256"
            },
            {
              "internalType": "string",
              "name": "name",
              "type": "string"
            },
            {
              "internalType": "uint256",
              "name": "age",
              "type": "uint256"
            },
            {
              "internalType": "enum SchoolManagement.Gender",
              "name": "student_gender",
              "type": "uint8"
            },
            {
              "internalType": "enum SchoolManagement.Status",
              "name": "student_status",
              "type": "uint8"
            }
          ],
          "internalType": "struct SchoolManagement.Student[]",
          "name": "",
          "type": "tuple[]"
        }
      ],
      "stateMutability": "view",
      "type": "function"
    },
    {
      "inputs": [
        {
          "internalType": "uint256",
          "name": "_studentId",
          "type": "uint256"
        }
      ],
      "name": "view_student_data",
      "outputs": [
        {
          "components": [
            {
              "internalType": "uint256",
              "name": "studentId",
              "type": "uint256"
            },
            {
              "internalType": "string",
              "name": "name",
              "type": "string"
            },
            {
              "internalType": "uint256",
              "name": "age",
              "type": "uint256"
            },
            {
              "internalType": "enum SchoolManagement.Gender",
              "name": "student_gender",
              "type": "uint8"
            },
            {
              "internalType": "enum SchoolManagement.Status",
              "name": "student_status",
              "type": "uint8"
            }
          ],
          "internalType": "struct SchoolManagement.Student",
          "name": "",
          "type": "tuple"
        }
      ],
      "stateMutability": "view",
      "type": "function"
    }
  ],
  "bytecode": "0x6080604052348015600f57600080fd5b5061143c8061001f6000396000f3fe608060405234801561001057600080fd5b506004361061007d5760003560e01c80633f09a5381161005b5780633f09a538146100d8578063400db99c146100f4578063486a4a3f146101285780636c3ee852146101585761007d565b806304bfd0d7146100825780631547617f1461009e578063349dff4c146100ba575b600080fd5b61009c6004803603810190610097919061099f565b610174565b005b6100b860048036038101906100b39190610b25565b61020d565b005b6100c26102b6565b6040516100cf9190610e19565b60405180910390f35b6100f260048036038101906100ed9190610e3b565b610431565b005b61010e60048036038101906101099190610e3b565b6104e9565b60405161011f959493929190610edf565b60405180910390f35b610142600480360381019061013d9190610e3b565b6105d1565b60405161014f9190610faf565b60405180910390f35b610172600480360381019061016d9190610ff6565b610729565b005b6000805490508211156101bc576040517f08c379a00000000000000000000000000000000000000000000000000000000081526004016101b3906110d9565b60405180910390fd5b80600083815481106101d1576101d06110f9565b5b906000526020600020906004020160030160016101000a81548160ff0219169083600281111561020457610203610c4e565b5b02179055505050565b6000805490508310610254576040517f08c379a000000000000000000000000000000000000000000000000000000000815260040161024b906110d9565b60405180910390fd5b8160008481548110610269576102686110f9565b5b906000526020600020906004020160010190816102869190611334565b50806000848154811061029c5761029b6110f9565b5b906000526020600020906004020160020181905550505050565b60606000805480602002602001604051908101604052809291908181526020016000905b8282101561042857838290600052602060002090600402016040518060a00160405290816000820154815260200160018201805461031790611157565b80601f016020809104026020016040519081016040528092919081815260200182805461034390611157565b80156103905780601f1061036557610100808354040283529160200191610390565b820191906000526020600020905b81548152906001019060200180831161037357829003601f168201915b50505050508152602001600282015481526020016003820160009054906101000a900460ff1660028111156103c8576103c7610c4e565b5b60028111156103da576103d9610c4e565b5b81526020016003820160019054906101000a900460ff16600281111561040357610402610c4e565b5b600281111561041557610414610c4e565b5b81525050815260200190600101906102da565b50505050905090565b600080549050811115610479576040517f08c379a0000000000000000000000000000000000000000000000000000000008152600401610470906110d9565b60405180910390fd5b6000818154811061048d5761048c6110f9565b5b90600052602060002090600402016000808201600090556001820160006104b49190610880565b60028201600090556003820160006101000a81549060ff02191690556003820160016101000a81549060ff0219169055505050565b600081815481106104f957600080fd5b906000526020600020906004020160009150905080600001549080600101805461052290611157565b80601f016020809104026020016040519081016040528092919081815260200182805461054e90611157565b801561059b5780601f106105705761010080835404028352916020019161059b565b820191906000526020600020905b81548152906001019060200180831161057e57829003601f168201915b5050505050908060020154908060030160009054906101000a900460ff16908060030160019054906101000a900460ff16905085565b6105d96108c0565b600082815481106105ed576105ec6110f9565b5b90600052602060002090600402016040518060a00160405290816000820154815260200160018201805461062090611157565b80601f016020809104026020016040519081016040528092919081815260200182805461064c90611157565b80156106995780601f1061066e57610100808354040283529160200191610699565b820191906000526020600020905b81548152906001019060200180831161067c57829003601f168201915b50505050508152602001600282015481526020016003820160009054906101000a900460ff1660028111156106d1576106d0610c4e565b5b60028111156106e3576106e2610c4e565b5b81526020016003820160019054906101000a900460ff16600281111561070c5761070b610c4e565b5b600281111561071e5761071d610c4e565b5b815250509050919050565b60006040518060a0016040528087815260200186815260200185815260200184600281111561075b5761075a610c4e565b5b815260200183600281111561077357610772610c4e565b5b815250905060008190806001815401808255809150506001900390600052602060002090600402016000909190919091506000820151816000015560208201518160010190816107c39190611334565b506040820151816002015560608201518160030160006101000a81548160ff021916908360028111156107f9576107f8610c4e565b5b021790555060808201518160030160016101000a81548160ff0219169083600281111561082957610828610c4e565b5b02179055505050600080549050861115610878576040517f08c379a000000000000000000000000000000000000000000000000000000000815260040161086f906110d9565b60405180910390fd5b505050505050565b50805461088c90611157565b6000825580601f1061089e57506108bd565b601f0160209004906000526020600020908101906108bc9190610913565b5b50565b6040518060a00160405280600081526020016060815260200160008152602001600060028111156108f4576108f3610c4e565b5b81526020016000600281111561090d5761090c610c4e565b5b81525090565b5b8082111561092c576000816000905550600101610914565b5090565b6000604051905090565b600080fd5b600080fd5b6000819050919050565b61095781610944565b811461096257600080fd5b50565b6000813590506109748161094e565b92915050565b6003811061098757600080fd5b50565b6000813590506109998161097a565b92915050565b600080604083850312156109b6576109b561093a565b5b60006109c485828601610965565b92505060206109d58582860161098a565b9150509250929050565b600080fd5b600080fd5b6000601f19601f8301169050919050565b7f4e487b7100000000000000000000000000000000000000000000000000000000600052604160045260246000fd5b610a32826109e9565b810181811067ffffffffffffffff82111715610a5157610a506109fa565b5b80604052505050565b6000610a64610930565b9050610a708282610a29565b919050565b600067ffffffffffffffff821115610a9057610a8f6109fa565b5b610a99826109e9565b9050602081019050919050565b82818337600083830152505050565b6000610ac8610ac384610a75565b610a5a565b905082815260208101848484011115610ae457610ae36109e4565b5b610aef848285610aa6565b509392505050565b600082601f830112610b0c57610b0b6109df565b5b8135610b1c848260208601610ab5565b91505092915050565b600080600060608486031215610b3e57610b3d61093a565b5b6000610b4c86828701610965565b935050602084013567ffffffffffffffff811115610b6d57610b6c61093f565b5b610b7986828701610af7565b9250506040610b8a86828701610965565b9150509250925092565b600081519050919050565b600082825260208201905092915050565b6000819050602082019050919050565b610bc981610944565b82525050565b600081519050919050565b600082825260208201905092915050565b60005b83811015610c09578082015181840152602081019050610bee565b60008484015250505050565b6000610c2082610bcf565b610c2a8185610bda565b9350610c3a818560208601610beb565b610c43816109e9565b840191505092915050565b7f4e487b7100000000000000000000000000000000000000000000000000000000600052602160045260246000fd5b60038110610c8e57610c8d610c4e565b5b50565b6000819050610c9f82610c7d565b919050565b6000610caf82610c91565b9050919050565b610cbf81610ca4565b82525050565b60038110610cd657610cd5610c4e565b5b50565b6000819050610ce782610cc5565b919050565b6000610cf782610cd9565b9050919050565b610d0781610cec565b82525050565b600060a083016000830151610d256000860182610bc0565b5060208301518482036020860152610d3d8282610c15565b9150506040830151610d526040860182610bc0565b506060830151610d656060860182610cb6565b506080830151610d786080860182610cfe565b508091505092915050565b6000610d8f8383610d0d565b905092915050565b6000602082019050919050565b6000610daf82610b94565b610db98185610b9f565b935083602082028501610dcb85610bb0565b8060005b85811015610e075784840389528151610de88582610d83565b9450610df383610d97565b925060208a01995050600181019050610dcf565b50829750879550505050505092915050565b60006020820190508181036000830152610e338184610da4565b905092915050565b600060208284031215610e5157610e5061093a565b5b6000610e5f84828501610965565b91505092915050565b610e7181610944565b82525050565b600082825260208201905092915050565b6000610e9382610bcf565b610e9d8185610e77565b9350610ead818560208601610beb565b610eb6816109e9565b840191505092915050565b610eca81610ca4565b82525050565b610ed981610cec565b82525050565b600060a082019050610ef46000830188610e68565b8181036020830152610f068187610e88565b9050610f156040830186610e68565b610f226060830185610ec1565b610f2f6080830184610ed0565b9695505050505050565b600060a083016000830151610f516000860182610bc0565b5060208301518482036020860152610f698282610c15565b9150506040830151610f7e6040860182610bc0565b506060830151610f916060860182610cb6565b506080830151610fa46080860182610cfe565b508091505092915050565b60006020820190508181036000830152610fc98184610f39565b905092915050565b60038110610fde57600080fd5b50565b600081359050610ff081610fd1565b92915050565b600080600080600060a086880312156110125761101161093a565b5b600061102088828901610965565b955050602086013567ffffffffffffffff8111156110415761104061093f565b5b61104d88828901610af7565b945050604061105e88828901610965565b935050606061106f88828901610fe1565b92505060806110808882890161098a565b9150509295509295909350565b7f696e76616c69642053747564656e7420496e6465780000000000000000000000600082015250565b60006110c3601583610e77565b91506110ce8261108d565b602082019050919050565b600060208201905081810360008301526110f2816110b6565b9050919050565b7f4e487b7100000000000000000000000000000000000000000000000000000000600052603260045260246000fd5b7f4e487b7100000000000000000000000000000000000000000000000000000000600052602260045260246000fd5b6000600282049050600182168061116f57607f821691505b60208210810361118257611181611128565b5b50919050565b60008190508160005260206000209050919050565b60006020601f8301049050919050565b600082821b905092915050565b6000600883026111ea7fffffffffffffffffffffffffffffffffffffffffffffffffffffffffffffffff826111ad565b6111f486836111ad565b95508019841693508086168417925050509392505050565b6000819050919050565b600061123161122c61122784610944565b61120c565b610944565b9050919050565b6000819050919050565b61124b83611216565b61125f61125782611238565b8484546111ba565b825550505050565b600090565b611274611267565b61127f818484611242565b505050565b5b818110156112a35761129860008261126c565b600181019050611285565b5050565b601f8211156112e8576112b981611188565b6112c28461119d565b810160208510156112d1578190505b6112e56112dd8561119d565b830182611284565b50505b505050565b600082821c905092915050565b600061130b600019846008026112ed565b1980831691505092915050565b600061132483836112fa565b9150826002028217905092915050565b61133d82610bcf565b67ffffffffffffffff811115611356576113556109fa565b5b6113608254611157565b61136b8282856112a7565b600060209050601f83116001811461139e576000841561138c578287015190505b6113968582611318565b8655506113fe565b601f1984166113ac86611188565b60005b828110156113d4578489015182556001820191506020850194506020810190506113af565b868310156113f157848901516113ed601f8916826112fa565b8355505b6001600288020188555050505b50505050505056fea26469706673582212207b6e6b01e82bc17c9eac6e1e8e87a965e2e48c16020f5e1abf29b16f6d0e6b5e64736f6c634300081e0033",
  "linkReferences": {},
  "deployedLinkReferences": {}
}