{
  "_format": "hh-sol-artifact-1",
  "contractName": "SwapPermit",
  "sourceName": "contracts/swapPermit.sol",
  "abi": [
    {
      "inputs": [],
      "name": "DeadlineExpired",
      "type": "error"
    },
    {
      "inputs": [],
      "name": "InsufficientAmount",
      "type": "error"
    },
    {
      "inputs": [],
      "name": "InvalidSignature",
      "type": "error"
    },
    {
      "inputs": [],
      "name": "SwapFailed",
      "type": "error"
    },
    {
      "anonymous": false,
      "inputs": [
        {
          "indexed": true,
          "internalType": "address",
          "name": "user",
          "type": "address"
        },
        {
          "indexed": true,
          "internalType": "address",
          "name": "tokenIn",
          "type": "address"
        },
        {
          "indexed": true,
          "internalType": "address",
          "name": "tokenOut",
          "type": "address"
        },
        {
          "indexed": false,
          "internalType": "uint256",
          "name": "amountIn",
          "type": "uint256"
        },
        {
          "indexed": false,
          "internalType": "uint256",
          "name": "amountOut",
          "type": "uint256"
        }
      ],
      "name": "SwapExecuted",
      "type": "event"
    },
    {
      "inputs": [],
      "name": "UNISWAP_ROUTER",
      "outputs": [
        {
          "internalType": "address",
          "name": "",
          "type": "address"
        }
      ],
      "stateMutability": "view",
      "type": "function"
    },
    {
      "inputs": [],
      "name": "eip712Helper",
      "outputs": [
        {
          "internalType": "contract EIP712Helper",
          "name": "",
          "type": "address"
        }
      ],
      "stateMutability": "view",
      "type": "function"
    },
    {
      "inputs": [
        {
          "internalType": "address",
          "name": "owner",
          "type": "address"
        },
        {
          "internalType": "uint256",
          "name": "amountIn",
          "type": "uint256"
        },
        {
          "internalType": "uint256",
          "name": "deadline",
          "type": "uint256"
        },
        {
          "internalType": "uint8",
          "name": "v",
          "type": "uint8"
        },
        {
          "internalType": "bytes32",
          "name": "r",
          "type": "bytes32"
        },
        {
          "internalType": "bytes32",
          "name": "s",
          "type": "bytes32"
        },
        {
          "internalType": "address",
          "name": "recipient",
          "type": "address"
        }
      ],
      "name": "swapDAIToUSDC",
      "outputs": [
        {
          "internalType": "uint256",
          "name": "amountOut",
          "type": "uint256"
        }
      ],
      "stateMutability": "nonpayable",
      "type": "function"
    },
    {
      "inputs": [
        {
          "internalType": "address",
          "name": "owner",
          "type": "address"
        },
        {
          "internalType": "address",
          "name": "tokenIn",
          "type": "address"
        },
        {
          "internalType": "uint256",
          "name": "permitAmount",
          "type": "uint256"
        },
        {
          "internalType": "uint256",
          "name": "deadline",
          "type": "uint256"
        },
        {
          "internalType": "uint8",
          "name": "v",
          "type": "uint8"
        },
        {
          "internalType": "bytes32",
          "name": "r",
          "type": "bytes32"
        },
        {
          "internalType": "bytes32",
          "name": "s",
          "type": "bytes32"
        },
        {
          "internalType": "uint256",
          "name": "swapAmountIn",
          "type": "uint256"
        },
        {
          "internalType": "uint256",
          "name": "swapAmountOutMin",
          "type": "uint256"
        },
        {
          "internalType": "address",
          "name": "tokenOut",
          "type": "address"
        },
        {
          "internalType": "address",
          "name": "recipient",
          "type": "address"
        },
        {
          "internalType": "uint256",
          "name": "swapDeadline",
          "type": "uint256"
        },
        {
          "internalType": "uint24",
          "name": "fee",
          "type": "uint24"
        }
      ],
      "name": "swapWithPermit",
      "outputs": [
        {
          "internalType": "uint256",
          "name": "amountOut",
          "type": "uint256"
        }
      ],
      "stateMutability": "nonpayable",
      "type": "function"
    }
  ],
  "bytecode": "0x60808060405234601557610627908161001b8239f35b600080fdfe608080604052600436101561001357600080fd5b600090813560e01c90816304afe81f146101ed5750806304e82dda146100a5578063c69060da1461007e5763d82649201461004d57600080fd5b3461007b578060031936011261007b57602060405173e592427a0aece92de3edee1f18e0157c058615648152f35b80fd5b503461007b578060031936011261007b57546040516001600160a01b039091168152602090f35b503461007b5760e036600319011261007b576100bf61058b565b90602435604435906064359060ff82168092036101e95760c4356001600160a01b03811692908390036101e557604051956304afe81f60e01b875260018060a01b03166004870152736b175474e89094c44da98b954eedeac495271d0f6024870152816044870152836064870152608486015260843560a486015260a43560c486015260e48501528261010485015273a0b86991c6218b36c1d19d4a2e9eb0ce3606eb48610124850152610144840152610164830152610bb86101848301526020826101a48184305af19081156101d957906101a1575b602090604051908152f35b506020813d6020116101d1575b816101bb602093836105a1565b810103126101cc5760209051610196565b600080fd5b3d91506101ae565b604051903d90823e3d90fd5b8480fd5b8380fd5b823461007b576101a036600319011261007b5761020861058b565b6024356001600160a01b0381169081900361058757604435606435926084359360ff85168095036105835760e43596610124356001600160a01b038116969087900361057f57610144356001600160a01b038116939084900361057b57610184359462ffffff86168096036105595781421161056c57868b1161055d57873b156105595763d505accf60e01b84526001600160a01b03166004840181905230602485015260448401969096526064830152608482015260a480359082015260c4803590820152868160e48183895af19081610545575b506102f257638baa579f60e01b8652600486fd5b6040516323b872dd60e01b81528360048201523060248201528760448201526020816064818a895af1801561051d57610528575b5060405163095ea7b360e01b815273e592427a0aece92de3edee1f18e0157c058615646004820152602481018890526020816044818a895af1801561051d576104f0575b5060405191610100830183811067ffffffffffffffff8211176104dc576040908152858452602080850188815285830193845260608601948552610164356080870190815260a087018c8152610104803560c08a0190815260e08a018e8152965163414bf38960e01b815299516001600160a01b0390811660048c01529451851660248b0152965162ffffff1660448a0152965183166064890152905160848801525160a4870152925160c4860152905190911660e4840152908290818873e592427a0aece92de3edee1f18e0157c058615645af19485156101d95794610486575b507f764f0dc063c06f32d89a3f3af80c0db4be8a090901f589a478b447e0a51f09f1604060209681519081528688820152a4604051908152f35b9493506020853d6020116104d4575b816104a2602093836105a1565b810103126101cc57935192937f764f0dc063c06f32d89a3f3af80c0db4be8a090901f589a478b447e0a51f09f161044c565b3d9150610495565b634e487b7160e01b88526041600452602488fd5b6105119060203d602011610516575b61050981836105a1565b8101906105d9565b61036a565b503d6104ff565b6040513d89823e3d90fd5b6105409060203d6020116105165761050981836105a1565b610326565b87610552919892986105a1565b95886102de565b8980fd5b632ca2f52b60e11b8a5260048afd5b631ab7da6b60e01b8a5260048afd5b8880fd5b8780fd5b8580fd5b8280fd5b600435906001600160a01b03821682036101cc57565b90601f8019910116810190811067ffffffffffffffff8211176105c357604052565b634e487b7160e01b600052604160045260246000fd5b908160209103126101cc575180151581036101cc579056fea2646970667358221220284012a359f3e2a5ce51ae47ba1339f98b5f965caa89cee2b7af571eff5cf4f964736f6c634300081c0033",
  "linkReferences": {},
  "deployedLinkReferences": {}
}