{
  "_format": "hh-sol-artifact-1",
  "contractName": "MultiSignatureAccount",
  "sourceName": "contracts/MultiSignatureContract.sol",
  "abi": [
    {
      "inputs": [
        {
          "internalType": "address[]",
          "name": "_owners",
          "type": "address[]"
        },
        {
          "internalType": "uint256",
          "name": "_required",
          "type": "uint256"
        }
      ],
      "stateMutability": "nonpayable",
      "type": "constructor"
    },
    {
      "inputs": [],
      "name": "Invalid_Number_of_Owners",
      "type": "error"
    },
    {
      "inputs": [],
      "name": "Invalid_Owner",
      "type": "error"
    },
    {
      "inputs": [],
      "name": "Owners_Required",
      "type": "error"
    },
    {
      "anonymous": false,
      "inputs": [
        {
          "indexed": true,
          "internalType": "address",
          "name": "owner",
          "type": "address"
        },
        {
          "indexed": true,
          "internalType": "uint256",
          "name": "transID",
          "type": "uint256"
        }
      ],
      "name": "Approve",
      "type": "event"
    },
    {
      "anonymous": false,
      "inputs": [
        {
          "indexed": true,
          "internalType": "address",
          "name": "sender",
          "type": "address"
        },
        {
          "indexed": false,
          "internalType": "uint256",
          "name": "amount",
          "type": "uint256"
        }
      ],
      "name": "Deposited",
      "type": "event"
    },
    {
      "anonymous": false,
      "inputs": [
        {
          "indexed": true,
          "internalType": "uint256",
          "name": "transID",
          "type": "uint256"
        }
      ],
      "name": "Execute",
      "type": "event"
    },
    {
      "anonymous": false,
      "inputs": [
        {
          "indexed": true,
          "internalType": "address",
          "name": "owner",
          "type": "address"
        },
        {
          "indexed": true,
          "internalType": "uint256",
          "name": "transID",
          "type": "uint256"
        }
      ],
      "name": "Revoke",
      "type": "event"
    },
    {
      "anonymous": false,
      "inputs": [
        {
          "indexed": true,
          "internalType": "uint256",
          "name": "transID",
          "type": "uint256"
        }
      ],
      "name": "Submitted",
      "type": "event"
    },
    {
      "inputs": [
        {
          "internalType": "uint256",
          "name": "",
          "type": "uint256"
        }
      ],
      "name": "AccountData",
      "outputs": [
        {
          "internalType": "address",
          "name": "acctAddress",
          "type": "address"
        },
        {
          "internalType": "uint256",
          "name": "value",
          "type": "uint256"
        },
        {
          "internalType": "bytes",
          "name": "acctData",
          "type": "bytes"
        },
        {
          "internalType": "string",
          "name": "acctDescription",
          "type": "string"
        },
        {
          "internalType": "bool",
          "name": "executed",
          "type": "bool"
        }
      ],
      "stateMutability": "view",
      "type": "function"
    },
    {
      "inputs": [
        {
          "internalType": "uint256",
          "name": "_transID",
          "type": "uint256"
        }
      ],
      "name": "approve",
      "outputs": [],
      "stateMutability": "nonpayable",
      "type": "function"
    },
    {
      "inputs": [
        {
          "internalType": "uint256",
          "name": "",
          "type": "uint256"
        },
        {
          "internalType": "address",
          "name": "",
          "type": "address"
        }
      ],
      "name": "approved",
      "outputs": [
        {
          "internalType": "bool",
          "name": "",
          "type": "bool"
        }
      ],
      "stateMutability": "view",
      "type": "function"
    },
    {
      "inputs": [
        {
          "internalType": "uint256",
          "name": "_transID",
          "type": "uint256"
        }
      ],
      "name": "execute",
      "outputs": [],
      "stateMutability": "nonpayable",
      "type": "function"
    },
    {
      "inputs": [
        {
          "internalType": "uint256",
          "name": "_transID",
          "type": "uint256"
        }
      ],
      "name": "getApprovalCount",
      "outputs": [
        {
          "internalType": "uint256",
          "name": "count",
          "type": "uint256"
        }
      ],
      "stateMutability": "view",
      "type": "function"
    },
    {
      "inputs": [
        {
          "internalType": "address",
          "name": "",
          "type": "address"
        }
      ],
      "name": "isOwner",
      "outputs": [
        {
          "internalType": "bool",
          "name": "",
          "type": "bool"
        }
      ],
      "stateMutability": "view",
      "type": "function"
    },
    {
      "inputs": [
        {
          "internalType": "uint256",
          "name": "",
          "type": "uint256"
        }
      ],
      "name": "owners",
      "outputs": [
        {
          "internalType": "address",
          "name": "",
          "type": "address"
        }
      ],
      "stateMutability": "view",
      "type": "function"
    },
    {
      "inputs": [],
      "name": "required",
      "outputs": [
        {
          "internalType": "uint256",
          "name": "",
          "type": "uint256"
        }
      ],
      "stateMutability": "view",
      "type": "function"
    },
    {
      "inputs": [
        {
          "internalType": "uint256",
          "name": "_transID",
          "type": "uint256"
        }
      ],
      "name": "revoke",
      "outputs": [],
      "stateMutability": "nonpayable",
      "type": "function"
    },
    {
      "inputs": [
        {
          "internalType": "address",
          "name": "_acctAddress",
          "type": "address"
        },
        {
          "internalType": "uint256",
          "name": "_value",
          "type": "uint256"
        },
        {
          "internalType": "bytes",
          "name": "_acctData",
          "type": "bytes"
        },
        {
          "internalType": "string",
          "name": "_acctDescription",
          "type": "string"
        }
      ],
      "name": "submit",
      "outputs": [],
      "stateMutability": "nonpayable",
      "type": "function"
    },
    {
      "inputs": [
        {
          "internalType": "uint256",
          "name": "_transID",
          "type": "uint256"
        }
      ],
      "name": "view_transaction",
      "outputs": [
        {
          "components": [
            {
              "internalType": "address",
              "name": "acctAddress",
              "type": "address"
            },
            {
              "internalType": "uint256",
              "name": "value",
              "type": "uint256"
            },
            {
              "internalType": "bytes",
              "name": "acctData",
              "type": "bytes"
            },
            {
              "internalType": "string",
              "name": "acctDescription",
              "type": "string"
            },
            {
              "internalType": "bool",
              "name": "executed",
              "type": "bool"
            }
          ],
          "internalType": "struct Storage.MultiSignatureAccount",
          "name": "",
          "type": "tuple"
        }
      ],
      "stateMutability": "view",
      "type": "function"
    },
    {
      "stateMutability": "payable",
      "type": "receive"
    }
  ],
  "bytecode": "0x608060405234801561001057600080fd5b506040516127cb3803806127cb8339818101604052810190610032919061041c565b600082510361006d576040517f184c7df700000000000000000000000000000000000000000000000000000000815260040160405180910390fd5b600081148061007c5750815181115b156100b3576040517f851cf1eb00000000000000000000000000000000000000000000000000000000815260040160405180910390fd5b60005b825181101561020c5760008382815181106100d4576100d3610478565b5b60200260200101519050600073ffffffffffffffffffffffffffffffffffffffff168173ffffffffffffffffffffffffffffffffffffffff1603610144576040517f22adafa200000000000000000000000000000000000000000000000000000000815260040160405180910390fd5b60018060008373ffffffffffffffffffffffffffffffffffffffff1673ffffffffffffffffffffffffffffffffffffffff16815260200190815260200160002060006101000a81548160ff0219169083151502179055506000819080600181540180825580915050600190039060005260206000200160009091909190916101000a81548173ffffffffffffffffffffffffffffffffffffffff021916908373ffffffffffffffffffffffffffffffffffffffff1602179055505080806001019150506100b6565b508060028190555050506104a7565b6000604051905090565b600080fd5b600080fd5b600080fd5b6000601f19601f8301169050919050565b7f4e487b7100000000000000000000000000000000000000000000000000000000600052604160045260246000fd5b61027d82610234565b810181811067ffffffffffffffff8211171561029c5761029b610245565b5b80604052505050565b60006102af61021b565b90506102bb8282610274565b919050565b600067ffffffffffffffff8211156102db576102da610245565b5b602082029050602081019050919050565b600080fd5b600073ffffffffffffffffffffffffffffffffffffffff82169050919050565b600061031c826102f1565b9050919050565b61032c81610311565b811461033757600080fd5b50565b60008151905061034981610323565b92915050565b600061036261035d846102c0565b6102a5565b90508083825260208201905060208402830185811115610385576103846102ec565b5b835b818110156103ae578061039a888261033a565b845260208401935050602081019050610387565b5050509392505050565b600082601f8301126103cd576103cc61022f565b5b81516103dd84826020860161034f565b91505092915050565b6000819050919050565b6103f9816103e6565b811461040457600080fd5b50565b600081519050610416816103f0565b92915050565b6000806040838503121561043357610432610225565b5b600083015167ffffffffffffffff8111156104515761045061022a565b5b61045d858286016103b8565b925050602061046e85828601610407565b9150509250929050565b7f4e487b7100000000000000000000000000000000000000000000000000000000600052603260045260246000fd5b612315806104b66000396000f3fe6080604052600436106100a05760003560e01c80638253951a116100645780638253951a14610203578063b759f95414610240578063ba7e7cab14610269578063c7f94d83146102a6578063dc8452cd146102e7578063fe0d94c114610312576100f5565b8063025e7c27146100fa57806320c5429b146101375780632f54bf6e146101605780633448f98e1461019d5780635ea17e47146101c6576100f5565b366100f5573373ffffffffffffffffffffffffffffffffffffffff167f2da466a7b24304f47e87fa2e1e5a81b9831ce54fec19055ce277ca2f39ba42c4346040516100eb9190611355565b60405180910390a2005b600080fd5b34801561010657600080fd5b50610121600480360381019061011c91906113b0565b61033b565b60405161012e919061141e565b60405180910390f35b34801561014357600080fd5b5061015e600480360381019061015991906113b0565b61037a565b005b34801561016c57600080fd5b5061018760048036038101906101829190611465565b610611565b60405161019491906114ad565b60405180910390f35b3480156101a957600080fd5b506101c460048036038101906101bf919061166e565b610631565b005b3480156101d257600080fd5b506101ed60048036038101906101e891906113b0565b610856565b6040516101fa9190611890565b60405180910390f35b34801561020f57600080fd5b5061022a600480360381019061022591906118b2565b610a78565b60405161023791906114ad565b60405180910390f35b34801561024c57600080fd5b50610267600480360381019061026291906113b0565b610aa7565b005b34801561027557600080fd5b50610290600480360381019061028b91906113b0565b610d41565b60405161029d9190611355565b60405180910390f35b3480156102b257600080fd5b506102cd60048036038101906102c891906113b0565b610ea2565b6040516102de959493929190611986565b60405180910390f35b3480156102f357600080fd5b506102fc611025565b6040516103099190611355565b60405180910390f35b34801561031e57600080fd5b50610339600480360381019061033491906113b0565b61102b565b005b6000818154811061034b57600080fd5b906000526020600020016000915054906101000a900473ffffffffffffffffffffffffffffffffffffffff1681565b600160003373ffffffffffffffffffffffffffffffffffffffff1673ffffffffffffffffffffffffffffffffffffffff16815260200190815260200160002060009054906101000a900460ff16610406576040517f08c379a00000000000000000000000000000000000000000000000000000000081526004016103fd90611a59565b60405180910390fd5b80600380549050811061044e576040517f08c379a000000000000000000000000000000000000000000000000000000000815260040161044590611ac5565b60405180910390fd5b816003818154811061046357610462611ae5565b5b906000526020600020906005020160040160009054906101000a900460ff16156104c2576040517f08c379a00000000000000000000000000000000000000000000000000000000081526004016104b990611b60565b60405180910390fd5b6004600084815260200190815260200160002060003373ffffffffffffffffffffffffffffffffffffffff1673ffffffffffffffffffffffffffffffffffffffff16815260200190815260200160002060009054906101000a900460ff1661055f576040517f08c379a000000000000000000000000000000000000000000000000000000000815260040161055690611bf2565b60405180910390fd5b60006004600085815260200190815260200160002060003373ffffffffffffffffffffffffffffffffffffffff1673ffffffffffffffffffffffffffffffffffffffff16815260200190815260200160002060006101000a81548160ff021916908315150217905550823373ffffffffffffffffffffffffffffffffffffffff167fec9ab91322523c899ede7830ec9bfc992b5981cdcc27b91162fb23de5791117b60405160405180910390a3505050565b60016020528060005260406000206000915054906101000a900460ff1681565b600160003373ffffffffffffffffffffffffffffffffffffffff1673ffffffffffffffffffffffffffffffffffffffff16815260200190815260200160002060009054906101000a900460ff166106bd576040517f08c379a00000000000000000000000000000000000000000000000000000000081526004016106b490611a59565b60405180910390fd5b60006040518060a001604052808773ffffffffffffffffffffffffffffffffffffffff16815260200186815260200185858080601f016020809104026020016040519081016040528093929190818152602001838380828437600081840152601f19601f820116905080830192505050505050508152602001838152602001600015158152509050600381908060018154018082558091505060019003906000526020600020906005020160009091909190915060008201518160000160006101000a81548173ffffffffffffffffffffffffffffffffffffffff021916908373ffffffffffffffffffffffffffffffffffffffff1602179055506020820151816001015560408201518160020190816107d79190611e1e565b5060608201518160030190816107ed9190611f4b565b5060808201518160040160006101000a81548160ff02191690831515021790555050506001600380549050610822919061204c565b7f12221729cf43d16e11d9c183a2f7967bff446869423750e0b33bd13a597be6dd60405160405180910390a2505050505050565b61085e6112f5565b60038054905082106108a5576040517f08c379a000000000000000000000000000000000000000000000000000000000815260040161089c90611ac5565b60405180910390fd5b600382815481106108b9576108b8611ae5565b5b90600052602060002090600502016040518060a00160405290816000820160009054906101000a900473ffffffffffffffffffffffffffffffffffffffff1673ffffffffffffffffffffffffffffffffffffffff1673ffffffffffffffffffffffffffffffffffffffff1681526020016001820154815260200160028201805461094290611c41565b80601f016020809104026020016040519081016040528092919081815260200182805461096e90611c41565b80156109bb5780601f10610990576101008083540402835291602001916109bb565b820191906000526020600020905b81548152906001019060200180831161099e57829003601f168201915b505050505081526020016003820180546109d490611c41565b80601f0160208091040260200160405190810160405280929190818152602001828054610a0090611c41565b8015610a4d5780601f10610a2257610100808354040283529160200191610a4d565b820191906000526020600020905b815481529060010190602001808311610a3057829003601f168201915b505050505081526020016004820160009054906101000a900460ff1615151515815250509050919050565b60046020528160005260406000206020528060005260406000206000915091509054906101000a900460ff1681565b600160003373ffffffffffffffffffffffffffffffffffffffff1673ffffffffffffffffffffffffffffffffffffffff16815260200190815260200160002060009054906101000a900460ff16610b33576040517f08c379a0000000000000000000000000000000000000000000000000000000008152600401610b2a90611a59565b60405180910390fd5b806003805490508110610b7b576040517f08c379a0000000000000000000000000000000000000000000000000000000008152600401610b7290611ac5565b60405180910390fd5b816004600082815260200190815260200160002060003373ffffffffffffffffffffffffffffffffffffffff1673ffffffffffffffffffffffffffffffffffffffff16815260200190815260200160002060009054906101000a900460ff1615610c1a576040517f08c379a0000000000000000000000000000000000000000000000000000000008152600401610c11906120cc565b60405180910390fd5b8260038181548110610c2f57610c2e611ae5565b5b906000526020600020906005020160040160009054906101000a900460ff1615610c8e576040517f08c379a0000000000000000000000000000000000000000000000000000000008152600401610c8590611b60565b60405180910390fd5b60016004600086815260200190815260200160002060003373ffffffffffffffffffffffffffffffffffffffff1673ffffffffffffffffffffffffffffffffffffffff16815260200190815260200160002060006101000a81548160ff021916908315150217905550833373ffffffffffffffffffffffffffffffffffffffff167f90ec57f18fa7b15c6b8d5e4d1deb90796c74b2ff23d4d0cecad0cb42a96b312860405160405180910390a350505050565b6000600160003373ffffffffffffffffffffffffffffffffffffffff1673ffffffffffffffffffffffffffffffffffffffff16815260200190815260200160002060009054906101000a900460ff16610dcf576040517f08c379a0000000000000000000000000000000000000000000000000000000008152600401610dc690611a59565b60405180910390fd5b60005b600080549050811015610e9c57600460008481526020019081526020016000206000808381548110610e0757610e06611ae5565b5b9060005260206000200160009054906101000a900473ffffffffffffffffffffffffffffffffffffffff1673ffffffffffffffffffffffffffffffffffffffff1673ffffffffffffffffffffffffffffffffffffffff16815260200190815260200160002060009054906101000a900460ff1615610e8f57600182610e8c91906120ec565b91505b8080600101915050610dd2565b50919050565b60038181548110610eb257600080fd5b90600052602060002090600502016000915090508060000160009054906101000a900473ffffffffffffffffffffffffffffffffffffffff1690806001015490806002018054610f0190611c41565b80601f0160208091040260200160405190810160405280929190818152602001828054610f2d90611c41565b8015610f7a5780601f10610f4f57610100808354040283529160200191610f7a565b820191906000526020600020905b815481529060010190602001808311610f5d57829003601f168201915b505050505090806003018054610f8f90611c41565b80601f0160208091040260200160405190810160405280929190818152602001828054610fbb90611c41565b80156110085780601f10610fdd57610100808354040283529160200191611008565b820191906000526020600020905b815481529060010190602001808311610feb57829003601f168201915b5050505050908060040160009054906101000a900460ff16905085565b60025481565b806003805490508110611073576040517f08c379a000000000000000000000000000000000000000000000000000000000815260040161106a90611ac5565b60405180910390fd5b816003818154811061108857611087611ae5565b5b906000526020600020906005020160040160009054906101000a900460ff16156110e7576040517f08c379a00000000000000000000000000000000000000000000000000000000081526004016110de90611b60565b60405180910390fd5b6002543073ffffffffffffffffffffffffffffffffffffffff1663ba7e7cab856040518263ffffffff1660e01b81526004016111239190611355565b602060405180830381865afa158015611140573d6000803e3d6000fd5b505050506040513d601f19601f820116820180604052508101906111649190612135565b10156111a5576040517f08c379a000000000000000000000000000000000000000000000000000000000815260040161119c906121ae565b60405180910390fd5b6000600384815481106111bb576111ba611ae5565b5b9060005260206000209060050201905060018160040160006101000a81548160ff02191690831515021790555060008160000160009054906101000a900473ffffffffffffffffffffffffffffffffffffffff1673ffffffffffffffffffffffffffffffffffffffff1682600101548360020160405161123b919061225c565b60006040518083038185875af1925050503d8060008114611278576040519150601f19603f3d011682016040523d82523d6000602084013e61127d565b606091505b50509050806112c1576040517f08c379a00000000000000000000000000000000000000000000000000000000081526004016112b8906122bf565b60405180910390fd5b847fddb556f1d2c1ec821e910b019d3685b229db152a0ecd517ca7e24b8bd713928960405160405180910390a25050505050565b6040518060a00160405280600073ffffffffffffffffffffffffffffffffffffffff1681526020016000815260200160608152602001606081526020016000151581525090565b6000819050919050565b61134f8161133c565b82525050565b600060208201905061136a6000830184611346565b92915050565b6000604051905090565b600080fd5b600080fd5b61138d8161133c565b811461139857600080fd5b50565b6000813590506113aa81611384565b92915050565b6000602082840312156113c6576113c561137a565b5b60006113d48482850161139b565b91505092915050565b600073ffffffffffffffffffffffffffffffffffffffff82169050919050565b6000611408826113dd565b9050919050565b611418816113fd565b82525050565b6000602082019050611433600083018461140f565b92915050565b611442816113fd565b811461144d57600080fd5b50565b60008135905061145f81611439565b92915050565b60006020828403121561147b5761147a61137a565b5b600061148984828501611450565b91505092915050565b60008115159050919050565b6114a781611492565b82525050565b60006020820190506114c2600083018461149e565b92915050565b600080fd5b600080fd5b600080fd5b60008083601f8401126114ed576114ec6114c8565b5b8235905067ffffffffffffffff81111561150a576115096114cd565b5b602083019150836001820283011115611526576115256114d2565b5b9250929050565b600080fd5b6000601f19601f8301169050919050565b7f4e487b7100000000000000000000000000000000000000000000000000000000600052604160045260246000fd5b61157b82611532565b810181811067ffffffffffffffff8211171561159a57611599611543565b5b80604052505050565b60006115ad611370565b90506115b98282611572565b919050565b600067ffffffffffffffff8211156115d9576115d8611543565b5b6115e282611532565b9050602081019050919050565b82818337600083830152505050565b600061161161160c846115be565b6115a3565b90508281526020810184848401111561162d5761162c61152d565b5b6116388482856115ef565b509392505050565b600082601f830112611655576116546114c8565b5b81356116658482602086016115fe565b91505092915050565b60008060008060006080868803121561168a5761168961137a565b5b600061169888828901611450565b95505060206116a98882890161139b565b945050604086013567ffffffffffffffff8111156116ca576116c961137f565b5b6116d6888289016114d7565b9350935050606086013567ffffffffffffffff8111156116f9576116f861137f565b5b61170588828901611640565b9150509295509295909350565b61171b816113fd565b82525050565b61172a8161133c565b82525050565b600081519050919050565b600082825260208201905092915050565b60005b8381101561176a57808201518184015260208101905061174f565b60008484015250505050565b600061178182611730565b61178b818561173b565b935061179b81856020860161174c565b6117a481611532565b840191505092915050565b600081519050919050565b600082825260208201905092915050565b60006117d6826117af565b6117e081856117ba565b93506117f081856020860161174c565b6117f981611532565b840191505092915050565b61180d81611492565b82525050565b600060a08301600083015161182b6000860182611712565b50602083015161183e6020860182611721565b50604083015184820360408601526118568282611776565b9150506060830151848203606086015261187082826117cb565b91505060808301516118856080860182611804565b508091505092915050565b600060208201905081810360008301526118aa8184611813565b905092915050565b600080604083850312156118c9576118c861137a565b5b60006118d78582860161139b565b92505060206118e885828601611450565b9150509250929050565b600082825260208201905092915050565b600061190e82611730565b61191881856118f2565b935061192881856020860161174c565b61193181611532565b840191505092915050565b600082825260208201905092915050565b6000611958826117af565b611962818561193c565b935061197281856020860161174c565b61197b81611532565b840191505092915050565b600060a08201905061199b600083018861140f565b6119a86020830187611346565b81810360408301526119ba8186611903565b905081810360608301526119ce818561194d565b90506119dd608083018461149e565b9695505050505050565b7f4f6e6c79204f776e6572732043616e20506572666f726d2054686973204f706560008201527f726174696f6e0000000000000000000000000000000000000000000000000000602082015250565b6000611a4360268361193c565b9150611a4e826119e7565b604082019050919050565b60006020820190508181036000830152611a7281611a36565b9050919050565b7f5472616e73616374696f6e20646f6573206e6f74206578697374000000000000600082015250565b6000611aaf601a8361193c565b9150611aba82611a79565b602082019050919050565b60006020820190508181036000830152611ade81611aa2565b9050919050565b7f4e487b7100000000000000000000000000000000000000000000000000000000600052603260045260246000fd5b7f5472616e73616374696f6e20616c726561647920657865637574656400000000600082015250565b6000611b4a601c8361193c565b9150611b5582611b14565b602082019050919050565b60006020820190508181036000830152611b7981611b3d565b9050919050565b7f5472616e73616374696f6e206e6f7420617070726f766564206279206f776e6560008201527f7200000000000000000000000000000000000000000000000000000000000000602082015250565b6000611bdc60218361193c565b9150611be782611b80565b604082019050919050565b60006020820190508181036000830152611c0b81611bcf565b9050919050565b7f4e487b7100000000000000000000000000000000000000000000000000000000600052602260045260246000fd5b60006002820490506001821680611c5957607f821691505b602082108103611c6c57611c6b611c12565b5b50919050565b60008190508160005260206000209050919050565b60006020601f8301049050919050565b600082821b905092915050565b600060088302611cd47fffffffffffffffffffffffffffffffffffffffffffffffffffffffffffffffff82611c97565b611cde8683611c97565b95508019841693508086168417925050509392505050565b6000819050919050565b6000611d1b611d16611d118461133c565b611cf6565b61133c565b9050919050565b6000819050919050565b611d3583611d00565b611d49611d4182611d22565b848454611ca4565b825550505050565b600090565b611d5e611d51565b611d69818484611d2c565b505050565b5b81811015611d8d57611d82600082611d56565b600181019050611d6f565b5050565b601f821115611dd257611da381611c72565b611dac84611c87565b81016020851015611dbb578190505b611dcf611dc785611c87565b830182611d6e565b50505b505050565b600082821c905092915050565b6000611df560001984600802611dd7565b1980831691505092915050565b6000611e0e8383611de4565b9150826002028217905092915050565b611e2782611730565b67ffffffffffffffff811115611e4057611e3f611543565b5b611e4a8254611c41565b611e55828285611d91565b600060209050601f831160018114611e885760008415611e76578287015190505b611e808582611e02565b865550611ee8565b601f198416611e9686611c72565b60005b82811015611ebe57848901518255600182019150602085019450602081019050611e99565b86831015611edb5784890151611ed7601f891682611de4565b8355505b6001600288020188555050505b505050505050565b60008190508160005260206000209050919050565b601f821115611f4657611f1781611ef0565b611f2084611c87565b81016020851015611f2f578190505b611f43611f3b85611c87565b830182611d6e565b50505b505050565b611f54826117af565b67ffffffffffffffff811115611f6d57611f6c611543565b5b611f778254611c41565b611f82828285611f05565b600060209050601f831160018114611fb55760008415611fa3578287015190505b611fad8582611e02565b865550612015565b601f198416611fc386611ef0565b60005b82811015611feb57848901518255600182019150602085019450602081019050611fc6565b868310156120085784890151612004601f891682611de4565b8355505b6001600288020188555050505b505050505050565b7f4e487b7100000000000000000000000000000000000000000000000000000000600052601160045260246000fd5b60006120578261133c565b91506120628361133c565b925082820390508181111561207a5761207961201d565b5b92915050565b7f5472616e73616374696f6e20616c726561647920617070726f76656400000000600082015250565b60006120b6601c8361193c565b91506120c182612080565b602082019050919050565b600060208201905081810360008301526120e5816120a9565b9050919050565b60006120f78261133c565b91506121028361133c565b925082820190508082111561211a5761211961201d565b5b92915050565b60008151905061212f81611384565b92915050565b60006020828403121561214b5761214a61137a565b5b600061215984828501612120565b91505092915050565b7f417070726f76616c203c20526571756972656400000000000000000000000000600082015250565b600061219860138361193c565b91506121a382612162565b602082019050919050565b600060208201905081810360008301526121c78161218b565b9050919050565b600081905092915050565b600081546121e681611c41565b6121f081866121ce565b9450600182166000811461220b576001811461222057612253565b60ff1983168652811515820286019350612253565b61222985611c72565b60005b8381101561224b5781548189015260018201915060208101905061222c565b838801955050505b50505092915050565b600061226882846121d9565b915081905092915050565b7f5472616e73616374696f6e20657865637574696f6e206661696c656400000000600082015250565b60006122a9601c8361193c565b91506122b482612273565b602082019050919050565b600060208201905081810360008301526122d88161229c565b905091905056fea2646970667358221220efab22399be4c0b3c2207e009bff5c9b4ac9915e6e491e8785bdcede54ffc4a564736f6c634300081c0033",
  "linkReferences": {},
  "deployedLinkReferences": {}
}